:020000040000FA
:1000000038380120FD2B010069F40300E92B0100C1
:10001000E92B0100E92B0100E92B0100E92B01008C
:10002000000000000000000000000000492E010058
:10003000E92B010000000000B92D0100E92B0100AF
:10004000C5300100C5300100C5300100C5300100D8
:10005000C5300100C5300100C5300100C5300100C8
:10006000C5300100C5300100C5300100C5300100B8
:10007000C5300100C5300100C5300100C5300100A8
:10008000C5300100C5300100C5300100C530010098
:10009000C5300100C5300100C5300100C530010088
:1000A000C5300100C5300100C5300100C530010078
:1000B000C5300100C5300100C5300100C530010068
:1000C000C5300100C5300100C5300100C530010058
:1000D000C5300100C5300100C5300100C530010048
:1000E000C5300100C5300100C5300100C530010038
:1000F000C5300100C5300100C5300100C530010028
:10010000C5300100C5300100C5300100C530010017
:10011000C5300100C5300100C5300100C530010007
:10012000C5300100C5300100C5300100C5300100F7
:10013000C5300100C5300100C5300100C5300100E7
:10014000C5300100C5300100C5300100C5300100D7
:10015000C5300100FFFFFFFF81F0004102E000BF5A
:1001600083F0004330B54FEA41044FEA430594EA77
:10017000050F08BF90EA020F1FBF54EA000C55EAB2
:10018000020C7FEA645C7FEA655C00F0E2804FEA83
:100190005454D4EB5555B8BF6D420CDD2C4480EA65
:1001A000020281EA030382EA000083EA010180EA95
:1001B000020281EA0303362D88BF30BD11F0004FE3
:1001C0004FEA01314FF4801C4CEA113102D0404219
:1001D00061EB410113F0004F4FEA03334CEA133354
:1001E00002D0524263EB430394EA050F00F0A7806C
:1001F000A4F10104D5F1200E0DDB02FA0EFC22FA67
:1002000005F2801841F1000103FA0EF2801843FA5A
:1002100005F359410EE0A5F120050EF1200E012A4B
:1002200003FA0EFC28BF4CF0020C43FA05F3C01889
:1002300051EBE37101F0004507D54FF0000EDCF102
:10024000000C7EEB00006EEB0101B1F5801F1BD3AB
:10025000B1F5001F0CD349085FEA30004FEA3C0CAF
:1002600004F101044FEA445212F5800F80F09A80A5
:10027000BCF1004F08BF5FEA500C50F1000041EBA9
:10028000045141EA050130BD5FEA4C0C404141EBAD
:100290000101013C28BFB1F5801FE9D291F0000FA8
:1002A00004BF01460020B1FA81F308BF2033A3F157
:1002B0000B03B3F120020CDA0C3208DD02F1140C4E
:1002C000C2F10C0201FA0CF021FA02F10CE002F189
:1002D0001402D8BFC2F1200C01FA02F120FA0CFC82
:1002E000DCBF41EA0C019040E41AA2BF01EB0451CB
:1002F000294330BD6FEA04041F3C1CDA0C340EDCC9
:1003000004F11404C4F1200220FA04F001FA02F30B
:1003100040EA030021FA04F345EA030130BDC4F1C9
:100320000C04C4F1200220FA02F001FA04F340EABE
:100330000300294630BD21FA04F0294630BD94F06F
:10034000000F83F4801306BF81F480110134013D56
:100350004EE77FEA645C18BF7FEA655C29D094EAC7
:10036000050F08BF90EA020F05D054EA000C04BF45
:100370001946104630BD91EA030F1EBF0021002030
:1003800030BD5FEA545C05D14000494128BF41F0CF
:10039000004130BD14F580043CBF01F5801130BD33
:1003A00001F0004545F0FE4141F470014FF00000BE
:1003B00030BD7FEA645C1ABF194610467FEA655C6F
:1003C0001CBF0B46024650EA013406BF52EA033511
:1003D00091EA030F41F4002130BD00BF90F0000FFF
:1003E00004BF0021704730B54FF4806404F132043B
:1003F0004FF000054FF0000150E700BF90F0000FF4
:1004000004BF0021704730B54FF4806404F132041A
:1004100010F0004548BF40424FF000013EE700BFEA
:1004200042004FEAE2014FEA31014FEA02701FBF7A
:1004300012F07F4393F07F4F81F06051704732F0AC
:100440007F4208BF704793F07F4F04BF41F4002103
:10045000704730B54FF4607401F0004521F0004161
:100460001CE700BF50EA010208BF704730B54FF0EB
:1004700000050AE050EA010208BF704730B511F0EC
:10048000004502D5404261EB41014FF4806404F124
:1004900032045FEA915C3FF4D8AE4FF003025FEAAA
:1004A000DC0C18BF03325FEADC0C18BF033202EB2E
:1004B000DC02C2F1200300FA03FC20FA02F001FA88
:1004C00003FE40EA0E0021FA02F11444BDE600BF2B
:1004D00070B54FF0FF0C4CF4E06C1CEA11541DBFDA
:1004E0001CEA135594EA0C0F95EA0C0F00F0DEF8A5
:1004F0002C4481EA030621EA4C5123EA4C5350EA8A
:10050000013518BF52EA033541F4801143F48013DA
:1005100038D0A0FB02CE4FF00005E1FB02E506F06B
:100520000042E0FB03E54FF00006E1FB03569CF0C0
:10053000000F18BF4EF0010EA4F1FF04B6F5007FC6
:1005400064F5407404D25FEA4E0E6D4146EB060638
:1005500042EAC62141EA55514FEAC52040EA5E50C1
:100560004FEACE2EB4F1FD0C88BFBCF5E06F1ED86B
:10057000BEF1004F08BF5FEA500E50F1000041EBA2
:10058000045170BD06F0004646EA010140EA02004F
:1005900081EA0301B4EB5C04C2BFD4EB0C0541EA71
:1005A000045170BD41F480114FF0000E013C00F386
:1005B000AB8014F1360FDEBF002001F0004170BDAA
:1005C000C4F10004203C35DA0C341BDC04F11404C3
:1005D000C4F1200500FA05F320FA04F001FA05F24F
:1005E00040EA020001F0004221F0004110EBD3701C
:1005F00021FA04F642EB06015EEA430E08BF20EA48
:10060000D37070BDC4F10C04C4F1200500FA04F3EA
:1006100020FA05F001FA04F240EA020001F000417C
:1006200010EBD37041F100015EEA430E08BF20EAEF
:10063000D37070BDC4F1200500FA05F24EEA020E37
:1006400020FA04F301FA05F243EA020321FA04F066
:1006500001F0004121FA04F220EA020000EBD3701D
:100660005EEA430E08BF20EAD37070BD94F0000F1D
:100670000FD101F00046400041EB010111F4801F51
:1006800008BF013CF7D041EA060195F0000F18BF02
:10069000704703F00046520043EB030313F4801F3E
:1006A00008BF013DF7D043EA0603704794EA0C0FF8
:1006B0000CEA135518BF95EA0C0F0CD050EA41060E
:1006C00018BF52EA4306D1D181EA030101F000418B
:1006D0004FF0000070BD50EA410606BF10461946B3
:1006E00052EA430619D094EA0C0F02D150EA0136BF
:1006F00013D195EA0C0F05D152EA03361CBF104600
:1007000019460AD181EA030101F0004141F0FE419E
:1007100041F470014FF0000070BD41F0FE4141F422
:10072000780170BD70B54FF0FF0C4CF4E06C1CEA22
:1007300011541DBF1CEA135594EA0C0F95EA0C0FD7
:1007400000F0A7F8A4EB050481EA030E52EA033592
:100750004FEA013100F088804FEA03334FF08055B3
:1007600045EA131343EA12634FEA022245EA1115E0
:1007700045EA10654FEA00260EF000419D4208BF91
:10078000964244F1FD0404F5407402D25B084FEA3E
:100790003202B61A65EB03055B084FEA32024FF4EA
:1007A00080104FF4002CB6EB020E75EB030E22BF47
:1007B000B61A754640EA0C005B084FEA3202B6EB07
:1007C000020E75EB030E22BFB61A754640EA5C00B6
:1007D0005B084FEA3202B6EB020E75EB030E22BF46
:1007E000B61A754640EA9C005B084FEA3202B6EB47
:1007F000020E75EB030E22BFB61A754640EADC0006
:1008000055EA060E18D04FEA051545EA16754FEA67
:1008100006164FEAC30343EA52734FEAC2025FEA85
:100820001C1CC0D111F4801F0BD141EA00014FF014
:1008300000004FF0004CB6E711F4801F04BF0143E5
:100840000020B4F1FD0C88BFBCF5E06F3FF6AFAE01
:10085000B5EB030C04BFB6EB020C5FEA500C50F191
:10086000000041EB045170BD0EF0004E4EEA113114
:1008700014EB5C04C2BFD4EB0C0541EA045170BD1B
:1008800041F480114FF0000E013C90E645EA060E5F
:100890008DE60CEA135594EA0C0F08BF95EA0C0F8D
:1008A0003FF43BAF94EA0C0F0AD150EA01347FF4D5
:1008B00034AF95EA0C0F7FF425AF104619462CE7AC
:1008C00095EA0C0F06D152EA03353FF4FDAE10460F
:1008D000194622E750EA410618BF52EA43067FF460
:1008E000C5AE50EA41047FF40DAF52EA43057FF4F0
:1008F000EBAE12E74FEA410212F5001215D211D504
:100900006FF47873B3EB625212D94FEAC12343F00C
:10091000004343EA505311F0004F23FA02F018BF8E
:10092000404270474FF00000704750EA013005D157
:1009300011F0004008BF6FF0004070474FF000001A
:10094000704700BF4FEA4102B2F1E04324BFB3F564
:10095000001CDCF1FE5C0DD901F0004C4FEAC00236
:100960004CEA5070B2F1004F40EB830008BF20F01A
:100970000100704711F0804F21D113F13872BCBFD4
:1009800001F00040704741F480114FEA5252C2F129
:100990001802C2F1200C10FA0CF320FA02F018BF72
:1009A00040F001004FEAC1234FEAD32303FA0CFCC5
:1009B00040EA0C0023FA02F34FEA4303CCE77FEA54
:1009C000625307D150EA01331EBF4FF0FE4040F49E
:1009D0004000704701F0004040F0FE4040F400004D
:1009E000704700BF7BB972B90029BEBF00204FF02D
:1009F000004106E008BF00281CBF6FF000414FF027
:100A0000FF3000F075B8ADF1080C6DE904CE002997
:100A100009DB002B1ADB00F042F9DDF804E0DDE928
:100A2000022304B07047404261EB4101002B1BDB05
:100A300000F035F9DDF804E0DDE9022304B04042BE
:100A400061EB4101524263EB43037047524263EB57
:100A5000430300F024F9DDF804E0DDE9022304B0EB
:100A6000404261EB41017047524263EB430300F0A7
:100A700016F9DDF804E0DDE9022304B0524263EB2D
:100A80004303704753B94AB9002908BF00281CBF67
:100A90004FF0FF314FF0FF3000F02AB8ADF1080CF5
:100AA0006DE904CE00F0FBF8DDF804E0DDE9022397
:100AB00004B07047D0B500220B4B06460F46FFF737
:100AC00007FD00F09FF80446FFF788FC0022074B63
:100AD000FFF7FEFC02460B4630463946FFF740FB67
:100AE00000F090F82146D0BD0000F03D0000F0413C
:100AF000704700BF4FF0FF3C06E000BF4FF0010C15
:100B000002E000BF4FF0010C4DF804CD4FEA410C5C
:100B10007FEA6C5C4FEA430C18BF7FEA6C5C1BD029
:100B200001B050EA410C0CBF52EA430C91EA030FAA
:100B300002BF90EA020F0020704710F1000F91EA07
:100B4000030F58BF994208BF90422CBFD8176FEAD5
:100B5000E37040F0010070474FEA410C7FEA6C5CA3
:100B600002D150EA013C07D14FEA430C7FEA6C5CAA
:100B7000D6D152EA033CD3D05DF8040B704700BFD6
:100B80008446104662468C461946634600E000BF24
:100B900001B5FFF7B7FF002848BF10F1000F01BDF6
:100BA0004DF808EDFFF7F4FF0CBF012000205DF8C1
:100BB00008FB00BF4DF808EDFFF7EAFF34BF012046
:100BC00000205DF808FB00BF4DF808EDFFF7E0FFDF
:100BD00094BF012000205DF808FB00BF4DF808ED30
:100BE000FFF7CEFF94BF012000205DF808FB00BF97
:100BF0004DF808EDFFF7C4FF34BF012000205DF879
:100C000008FB00BF4A0011D212F5001211D20DD517
:100C10006FF47873B3EB62520ED44FEAC12343F002
:100C2000004343EA505323FA02F070474FF00000AC
:100C3000704750EA013002D14FF0FF3070474FF05B
:100C4000000070474FEA410C7FEA6C5C02D150EA29
:100C5000013C0AD14FEA430C7FEA6C5C02D152EAB4
:100C6000033C02D14FF0000070474FF00100704785
:100C700038B50022002304460D46FFF79BFF28B934
:100C800020462946BDE83840FFF714BF204605F14D
:100C90000041FFF70FFF404261EB410138BD2DE9F4
:100CA000F04786468C460846089E15467446194607
:100CB000002B40F0C1808542B2FA82F245D94AB198
:100CC000C2F1200300FA02FC954094402EFA03F38F
:100CD00043EA0C0C4FEA154EA8B2230CBCFBFEF8FD
:100CE0000EFB18CC08FB00F943EA0C43994528D9C0
:100CF000EB1808F1FF3704D2994502D9A8F1020791
:100D00002B44A3EB0903A4B2B3FBFEFC0EFB1C3384
:100D10000CFB00F044EA0344A04214D92C190CF156
:100D2000FF3304D2A04202D9ACF102032C44241AAE
:100D300043EA07401EB1D440002334607360BDE82D
:100D4000F0874746DDE76346F1E792BB431B01218D
:100D50004FEA154EAFB2200CB3FBFEFC0EFB1C336A
:100D60000CFB07F840EA0343984561D9EB180CF1F6
:100D7000FF3004D2984502D9ACF102002B44A3EB1A
:100D80000803A4B2B3FBFEFC0EFB1C330CFB07F7FD
:100D900044EA0344A7424DD92C190CF1FF3304D285
:100DA000A74202D9ACF102032C44E41B43EA004001
:100DB000C0E7C2F120039540944020FA03F12EFAD7
:100DC00003F34FEA154E9040AFB20343B1FBFEFC74
:100DD0000EFB1C10190C0CFB07F841EA004188457A
:100DE00022D969180CF1FF3004D2884502D9ACF140
:100DF00002002944A1EB08019BB2B1FBFEFC0EFBF3
:100E00001C110CFB07F743EA01439F420ED9EB1874
:100E10000CF1FF3104D29F4202D9ACF102012B4404
:100E2000DB1B41EA004193E76046E3E76146F7E7F1
:100E30006046A4E76346B8E7834206D916B90021A5
:100E400008467CE7C6E900E0F9E7B3FA83F78FB913
:100E5000834201D3724508D8BEEB020460EB030362
:100E600001209C461EB9002169E73846FAE7C6E929
:100E7000004CF8E7C7F1200CBB400EFA07F522FA48
:100E80000CF42EFA0CF1BA401C4320FA0CF3B840D3
:100E90004FEA144901431FFA84FEB3FBF9F809FB3A
:100EA00018300B0C08FB0EFA43EA00439A4540D970
:100EB000E31808F1FF3004D29A4502D9A8F10200E4
:100EC0002344A3EB0A0389B2B3FBF9F809FB1833F7
:100ED00008FB0EFE41EA03418E452CD9611808F14A
:100EE000FF3304D28E4502D9A8F10203214443EA1C
:100EF0000040A1EB0E01A0FB02984145CE464346BF
:100F000002D306D14D4504D20138B9EB020E68EB8D
:100F10000403002EA7D0B5EB0E0261EB030101FA2A
:100F20000CFC22FA07F3F9404CEA0303C6E900314E
:100F300099E74046C5E74346D9E770B4840746D0F1
:100F40004C1E002941D0D5B2034602E0611EE4B335
:100F50000C4603F8015B9907F8D1032C2ED9D5B2C2
:100F600045EA05250F2C45EA054519D9264603F122
:100F70001001103E0F2E41F8105C41F80C5C41F856
:100F8000085C41F8045C01F11001F2D8A4F11001F1
:100F900021F00F0104F00F041031032C0B440DD984
:100FA0001E4621460439032946F8045BFAD8211F5E
:100FB00021F0030104310B4404F003042CB1D2B23C
:100FC0001C4403F8012BA342FBD170BC70470C46B4
:100FD0000346C2E710F8012B11F8013B012A28BF94
:100FE0009A42F7D0D01A7047034613F8012B002A13
:100FF000FBD1181A0138704710B584460C460C48CE
:10100000ACFB000108A3D3E900234FF0070E0EFB51
:101010000C11FFF737FD074B1B68074A02FB030063
:10102000204410BDAFF3008000CA9A3B00000000CE
:101030008D49FD1AA8A700200080841E0000000032
:101040002DE9F04F8DB009900D46174646F0F7F8A0
:101050004B0143EAD0634401241A63EB01039B0074
:1010600043EA9473A400241843EB0101C90041EA48
:101070005471C4F3103444EA41444FEAD139012D8C
:1010800065D07D6829463C48FFF7A4FF28B1294672
:101090003A48FFF79FFF002861D135A3D3E9002329
:1010A00020464946FFF79EFC80460A9130A3D3E9CB
:1010B000002320464946FFF795FC15461C46304A5A
:1010C000002328462146FFF78DFC06460F462C4A92
:1010D000002328462146FFF785FC15461C464EF6A0
:1010E0006022002328462146FFF77CFC81460B91B5
:1010F0004EF66022002328462146FFF773FC154672
:101100001C464FF47A72002328462146FFF76AFCFA
:1011100083468A464FF47A72002328462146FFF719
:1011200061FCCDE90623CDF810B0CDF814A0CDF8C0
:1011300008900B9A03920096019742460A9B114928
:1011400009983DF007FA00200DB0BDE8F08F224667
:101150004B460D4909983DF0FDF90020F4E72A4679
:101160000A4909983DF005FA6FF00400ECE700BF6A
:10117000005C2605000000003CCE040040CE0400C8
:1011800080EE360064CE040028CE04004CCE04006D
:1011900010B50468E217530143EAD4636101091BE7
:1011A00063EB02035B0243EAD1534902091942EBA4
:1011B000030C4FEA8C1E4EEA916E8B015B1A6EEBAC
:1011C0000C0E1B1942EB0E0241685B1842EBE172F8
:1011D000012B72F100011ADBD91842EB0200CB1887
:1011E00042EB0002110141EA13711801C01A61EBD0
:1011F0000201890041EA90718000154BC01812A3CA
:10120000D3E9002341F10001FFF7ECFB10BDD91831
:1012100042EB0200CB1842EB0002110141EA1371CC
:101220001801C01A61EB0201890041EA9071800047
:10123000084BC01804A3D3E9002361F10001FFF7B4
:10124000D1FBE3E7AFF30080D8EF2F0000000000F0
:10125000ECF717001408E8FF2DE9F0470D46174694
:101260001E46032800F29080DFE800F00222418B46
:10127000B2F90400A0FB0606C217474BA0FB0346C9
:1012800003FB026642A3D3E9002320463146FFF761
:10129000A9FB2860414A002320463146FFF7A2FB04
:1012A0003E4A0023FFF79EFB6A600020BDE8F087FE
:1012B000B2F90600A0FB0606C217374BA0FB034697
:1012C00003FB026632A3D3E9002320463146FFF731
:1012D00089FB2860314A002320463146FFF782FB14
:1012E0002E4A0023FFF77EFB6A600020DEE7B2F99A
:1012F0000800A0FB0606C217274BA0FB034603FB12
:10130000026623A3D3E9002320463146FFF76AFB98
:101310002860224A002320463146FFF763FB1F4A1C
:101320000023FFF75FFB6A600020BFE7A94607EBD9
:101330004803B3F90400A0FB0603C217164CA0FB38
:1013400004A004FB020412A3D3E900235046214663
:10135000FFF748FB49F8080B104A00235046214686
:10136000FFF740FB0D4A0023FFF73CFB6A6008F1E2
:1013700001085FFA88F84D46B8F1020FD6D900206F
:1013800094E74FF00008F7E76FF085008EE700BFA5
:101390000010A5D4E80000003AA3950040420F00D9
:1013A0002DE9F0470E4617461D460438032800F283
:1013B000C181DFE810F004006E00D700BC01B2F973
:1013C0001020D317A5FB020205FB0322D41704F05B
:1013D000030520F07043010F41EA021121F0704132
:1013E0000B4403EB12632B44D949A1FB035727F0AD
:1013F000030505EB97055B1B24F003042344C01A87
:1014000062EBE3724FF0CC3300FB03F301FB0232DB
:10141000A0FB01031344D90F091843F10003490845
:1014200041EAC371CA174B1842EB02055C1842EB44
:1014300005052D0245EA14652402641A65EB0205D0
:10144000ED0145EA5465E401641A65EB0205AD005F
:1014500045EA9475A400641A65EB0205ED0045EABF
:101460005475E400B6A3D3E9002320462946FFF7CC
:10147000B9FA3060B4A3D3E9002320462946FFF728
:10148000B1FAB44A0023FFF7ADFA72600020BDE85C
:10149000F087B2F91220D317A5FB020205FB032245
:1014A000D41704F0030520F07043010F41EA021144
:1014B00021F070410B4403EB12632B44A449A1FBC0
:1014C000035727F0030505EB97055B1B24F0030486
:1014D0002344C01A62EBE3724FF0CC3300FB03F3FA
:1014E00001FB0232A0FB01031344D90F091843F199
:1014F0000003490841EAC371CA174B1842EB0205C1
:101500005C1842EB05052D0245EA14652402641AB5
:1015100065EB0205ED0145EA5465E401641A65EBEB
:101520000205AD0045EA9475A400641A65EB020556
:10153000ED0045EA5475E40081A3D3E90023204679
:101540002946FFF74FFA30607FA3D3E900232046F6
:101550002946FFF747FA7F4A0023FFF743FA7260F4
:10156000002094E7B2F91420D317A5FB020205FB73
:101570000322D41704F0030520F07043010F41EA61
:10158000021121F070410B4403EB12632B447049AC
:10159000A1FB035727F0030505EB97055B1B24F020
:1015A00003042344C01A62EBE3724FF0CC3300FB18
:1015B00003F301FB0232A0FB01031344D90F091806
:1015C00043F10003490841EAC371CA174B1842EBC3
:1015D00002055C1842EB05052D0245EA146524025C
:1015E000641A65EB0205ED0145EA5465E401641AED
:1015F00065EB0205AD0045EA9475A400641A65EB3D
:101600000205ED0045EA5475E4004DA3D3E900233B
:1016100020462946FFF7E6F930604BA3D3E90023C3
:1016200020462946FFF7DEF94A4A0023FFF7DAF998
:10163000726000202BE7B14608F1080337F9132048
:10164000D317A5FB020205FB0322D41704F0030CF9
:1016500020F07043010F41EA021121F070410B4468
:1016600003EB126363443A49A1FB03CE2EF0030C53
:101670000CEB9E0CA3EB0C0324F003042344C01AD0
:1016800062EBE3724FF0CC3300FB03F301FB023259
:10169000A0FB01031344DA0F121843F100035208B0
:1016A00042EAC372D31712EB020C43EB030A1CEBA2
:1016B000020443EB0A0A4FEA0A2A4AEA146A24029D
:1016C000A41A6AEB030A4FEACA1A4AEA546AE40106
:1016D000A41A6AEB030A4FEA8A0A4AEA947AA40037
:1016E000A41A6AEB030A4FEACA0A4AEA547AE400E7
:1016F00013A3D3E9002320465146FFF773F949F8B5
:10170000080B11A3D3E9002320465146FFF76AF9DD
:10171000104A0023FFF766F9726008F101085FFACA
:1017200088F84E46B8F1020F85D90020AFE64FF099
:101730000008F7E76FF08500A9E600BFAFF300806F
:1017400000209BF35E10000080A812010000000042
:10175000CDCCCCCC40420F0038B504464068072AB7
:1017600006D00A2A45D0002A3ED06FF0850038BD49
:101770001D68E917480140EAD5606A01521B60EB19
:101780000100400240EAD2505202521941EB000CD3
:101790004FEA8C1E4EEA926E9001801A6EEB0C0E90
:1017A000401941EB0E015B68181841EBE371012809
:1017B00071F100030DDB204BC0181DA3D3E90023FA
:1017C00041F10001FFF70EF9014620461AF09EFF95
:1017D000CDE71A4BC01816A3D3E9002361F100012D
:1017E000FFF700F90146F0E71988204640F095FD23
:1017F000BDE71B68072B15D8DFE803F004101406BB
:10180000080A0C0E00210AE0032108E0042106E08A
:10181000052104E0062102E0072100E001213DF05E
:10182000A1FAA4E76FF00400A1E700BFAFF30080C6
:101830003AA39500000000009DD14A00632EB5FF39
:1018400030B589B00C9D00283FD00446002949D00E
:10185000D0F8200110F0010F51D10020C4F8080188
:10186000C4F80C0104F58870C4F81001C4F8140120
:1018700004F58C70C4F81801C4F81C01002D4BD07D
:10188000287900284AD10120C4F820019FED267B49
:101890008DED067B0020049003930290019000944C
:1018A000234B204626F09AFA55B1296811B12046FB
:1018B00026F04EF96B791BB1237B43F001032373B0
:1018C000204645F064FB09B030BD1A4C40F2DF23DE
:1018D0002246194919483BF08BFD40F2DF21204692
:1018E00009F066FB134C4FF4387322461449134831
:1018F0003BF07EFD4FF43871204609F059FB0D4C4A
:1019000040F2E12322460F490C483BF071FD40F2C2
:10191000E121204609F04CFB0120B5E740F201101F
:10192000B2E700BFAFF30080FFFFFFFFFFFFFFFF45
:10193000B9720200A850050078510500AC8D040072
:1019400080510500885105009FED010B704700BFD5
:10195000000000000000F87F2DE9F04F1F469DB009
:1019600000230C4682460F9218934FF00008984BC4
:101970004FF000091D682846FFF736FB22468346D4
:10198000179213782B2B3BD02CD80D2B26D8082B55
:1019900026D8002B2FD000230D93179E3378302BA1
:1019A00074D1737803F0DF03582B65D10D9B17A911
:1019B000884A5046019318AB0297009319AB39F04F
:1019C00009FA10F00705044635D0062D1AD10F9BF1
:1019D0000BB101361E6042464B4637E0202BDAD170
:1019E0000132CDE72D2BD6D101230D93531C179334
:1019F0005378002BD1D10F9B002BECD01C60EAE771
:101A00000023F2E7189A3AB135211AA846F093F963
:101A10001899504639F05EFC013D199A042D06D8FC
:101A2000DFE805F0190322251900DDE91A892107ED
:101A300001D549F000490F9B13B1179B0F9A136012
:101A40000D9B002BC7D0424609F1004343EC102BFD
:101A50001DB0BDE8F08FDDE91A8302F2334223F4B2
:101A6000801343EA0259E2E7DFF86C91DFE76FF099
:101A700000494FF0FF38DAE7179B5A1C17925B7842
:101A8000302BF9D0002BD6D0012300E00023002713
:101A900004930A22179BCDE905770A9317980678D5
:101AA000A6F13003D9B2092924D95A46294645F06E
:101AB00083FE00282DD000203246059D8346034634
:101AC000652A01D0452A13D11DB9049A024392D048
:101AD0000025179C621C179262782B2A6ED02D2A43
:101AE00072D04FF0000CA2F1300109297AD9179475
:101AF000002699E00599013008291790D7BF06996B
:101B000002FB073702FB01330693059B0133059364
:101B1000C4E7179B03EB0B02179213F80B20059BEE
:101B2000A3B383461D46A2F13003092B12D901232A
:101B3000C6E7179B01305A1C17925A78302AF8D002
:101B4000A2F13103082B00F2EF8483460020179B9B
:101B500005460A93303A00F1010311D09B4400EB93
:101B6000050C2B460A21634512D12B180135082B91
:101B7000054419DC06990A2303FB0123069300237D
:101B8000179A1846511C17915278CCE70598D5E75B
:101B9000082B03F1010303DC069E4E430696E2E7A1
:101BA000102BD8BF4F43DEE70F2BDCBF0A2303FB0C
:101BB0000727E4E74FF0000B012386E74FF0000C06
:101BC000A21C1792A2788EE74FF0010CF8E700BF35
:101BD000448305002C8305000000F07F179A511CF8
:101BE00017915278302AF9D0A2F1310108293FF635
:101BF0007FAF303A0792179A0C92179A561C179695
:101C00005278A2F1300EBEF1090F38D90C99761A2C
:101C1000082E44F61F6603DC07998E42A8BF0E46C5
:101C2000BCF1000F00D07642002D4FD1049908433B
:101C30007FF401AF002B7FF4DEAE692A29D026DCC9
:101C4000492A26D04E2A7FF4D6AE9B4917A845F0E4
:101C500007FF00283FF4CFAE179B1B78282B2FD10E
:101C60001AAA964917A845F00FFF052828D11B9BF3
:101C7000DDF8688043F0FF4949F4E009DBE6079EA0
:101C80000A2101FB0621A1F130020792B5E76E2A75
:101C9000D9E78B4917A845F0E3FE00283FF4ABAE27
:101CA000179B17A88749013B179345F0D9FE10B938
:101CB000179B01331793DFF81C924FF00008BAE628
:101CC0008148FFF741FE59EC108BB4E6A6EB0B03FD
:101CD00006982C460C93059B002B08BF2B46102D15
:101CE0000593A8BF1024FEF779FB092D804689468D
:101CF00013DC0C9B002B3FF49EAE0C9B78DD162B67
:101D000045DC7249424601EBC3014B46D1E9000173
:101D1000FEF7DEFB804689468DE66C4B03EBC40381
:101D200053E91223FEF7D4FB804689463846FEF776
:101D300055FB02460B4640464946FEF713FA0F2D67
:101D400080468946D5DD2C1B0C9B1C44002C25DCD1
:101D500000F0A280644214F00F020AD05B4B4046B0
:101D6000494603EBC203D3E90023FEF7DBFC8046C0
:101D70008946241100F090801F2C40F3B18022236B
:101D80004FF000084FF00009CAF8003053E6C5F1E3
:101D900025030C9A934219DA2C1B144414F00F03F8
:101DA0000AD04A49424601EBC3014B46D1E9000142
:101DB000FEF78EFB8046894634F00F046CD0B4F5F4
:101DC0009A7F41DD2223CAF8003074E7C5F10F0580
:101DD0003E4C42464B4604EBC501D1E90001FEF7FB
:101DE00077FB0C9B5D1B04EBC504D4E900238FE754
:101DF0001633A8DBABEB0602344B4046494603EBF7
:101E0000C203D3E90023FEF78DFC83E7002306938A
:101E10002223DFF8C0904FF00008CAF8003018996C
:101E2000504639F057FA0699504639F053FA059959
:101E3000504639F04FFA1099504639F04BFA07994D
:101E4000504639F047FAF6E500232411404649464A
:101E50001F4F0493012C22DC0BB180468946049B62
:101E6000A9F154791A49424601EBC3014B46D1E925
:101E70000001FEF72DFB174B0A4680460B40164922
:101E80008B429FD8A1F580118B4286BFDFF84C9022
:101E90004FF0FF3802F15479002304934BE0E2073E
:101EA00004D5D7E90023FEF713FB0123049A64103D
:101EB000083701320492CDE7D8CB0500188305001E
:101EC000D0CB050002CC050090CD0500B88B0400F6
:101ED000908B04000000F07F0000A07CFFFFEF7FEC
:101EE00014F0100340464946AA4F18BF6A230493D2
:101EF0000023E20704D5D7E90023FEF7E9FA01231E
:101F0000641007F10807F4D10BB180468946049BA1
:101F100043B1C9F30A524946C2F16B03002B4EDCB0
:101F20006A2304930022002340464946FEF738FE08
:101F300000287FF424AF069B5046059A00932B4659
:101F40000A9939F031FA109000283FF43BAF0C9B0E
:101F5000ABEB060B002BB4BF5B46002311930C9B2D
:101F600023EAE3731393002307930593109B5046D2
:101F7000596839F06FF9069000283FF449AF109B7B
:101F80000C301A6903F10C010232920045F0BDFADF
:101F90001AAA19A9504649EC108BCDE90A8939F0E3
:101FA000DFFC189000283FF433AF0121504639F090
:101FB00045FA03460590D0B90023059328E71F2B67
:101FC0000EDD342B4FF00008DBBF4FF0FF33C2F1C2
:101FD0004B024FF05C799340D8BF03EA01099FE7B9
:101FE0004FF0FF3202FA03F303EA080898E7199C5E
:101FF0001A9A002CA9BF119B139BE718139EB8BF18
:102000001E1B049BB8BF119FE41A634B1444C2F11A
:102010003602013C9C4280F2B0801B1B01251F2B25
:10202000A2EB0302CDBFC4F17F449D40002404F520
:102030007F04C2BF04F57B44E23405FA04F407EBE5
:10204000020B049B16445F451E443B46A8BF5B46FB
:10205000B342A8BF3346002BC2BFABEB030BF61A4B
:10206000FF1A119B002B16DD1A460599504639F0D0
:10207000A5FA059000289FD00146189A504639F0DD
:10208000F3F90E9000283FF4C3AE1899504639F08A
:1020900021F90E9B1893BBF1000F71DC0C9B002BF8
:1020A00008DD139A5046069939F088FA0690002800
:1020B0003FF4ACAE002E08DD32460699504639F0AA
:1020C000D7FA069000283FF4A1AE002F08DD3A466B
:1020D0000599504639F0CCFA059000283FF498AEA7
:1020E000069A5046189939F02FFB079000283FF4C4
:1020F0008FAEC36805990E930023C36045F0CEFDF3
:1021000000284BDA0E9B53EA080340F0BC80C9F369
:102110001303002B40F0B78029F000431B0D1B0573
:10212000B3F1D66F40F2AF80079B5B6923B9079B81
:102130001B69012B40F3A78001220799504639F013
:1021400097FA0599079045F0A9FD002840F39B8078
:1021500029F00043049A1B0D1B05002A79D0B3F126
:10216000D66F6DD8B3F15C7F46D84FF000084FF0C2
:1021700000092223CAF8003051E6002401255EE759
:102180005A461899504639F073FA1890002885D1AC
:102190003EE600BF688B040002FCFFFFCB4640F028
:1021A000A3800E9AC9F31303002A40D09C4A93429D
:1021B00058D1049B42467BB9B8F1FF3F40F089807B
:1021C000984B99453FF424AE974BDDF8108009EA0F
:1021D000030303F5801922E6934B09EA0303B3F1E5
:1021E000D46F16D918F101011BD18E4A91453FF4E5
:1021F0000FAE03F5801980468C4B404649460022BD
:10220000FEF766F90B468046894603437FF407AE26
:10221000AFE71E0D4FF0FF31C6F16B06B1408845A8
:10222000E7D0002C5ED014EA0B0FE5D01EE0002BA7
:102230004AD1B8F1000F8BD064B314EA0B0F2BE036
:10224000A3F580134FF0FF386FEA13596FEA09596D
:10225000D2E7A3F580134FF0FF386FEA13596FEA06
:102260000959DCE59CB114EA090F0CD040464946F7
:10227000049A45F0D2FADDE90A0153EC102BFDF780
:1022800071FF80468946049B002BB5D1C7E515EA4E
:10229000080FEAE718EA050FF5D0049A40464946C8
:1022A00045F0BBFADDE90A0153EC102BFDF758FFAE
:1022B0000022002304460D46FEF772FC00287FF43E
:1022C00054AFA046A946DEE7002CB6D115EA080FA8
:1022D000E2E724B114EA090F3FF4A1ADC6E718EA1A
:1022E000050FF9E72A42A0E70599079845F0F1FCA8
:1022F00000224FF0804355EC104B20462946FEF754
:1023000063FC00286DD00E9B002B78D1B8F1000F34
:1023100056D1C9F31303002B59D10022444B204658
:102320002946FEF747FC002858D1204629460022BE
:10233000404BFEF7CDF804460D4605F100430894E6
:102340000993394B0BEA03031293129A3A4B9A42C0
:10235000DDE9086740F0A980ABF1547949EC108BB6
:1023600039F08AFADDE9082351EC100BFEF7B0F8DA
:1023700042464B46FDF7F6FE0B462B4980462F4A58
:10238000194091425CD90B9A264B9A4203D10A9B81
:1023900001333FF43DADDFF88C904FF0FF381899D2
:1023A000504638F097FF0699504638F093FF05994C
:1023B000504638F08FFF0799504638F08BFFD5E52F
:1023C000B8F1010F03D1B9F1000F3FF4CEAE0024F4
:1023D000174D9FED0F7B8DED087BB2E70024154D67
:1023E000ABE7144B204629460022FEF771F80E9BFE
:1023F00004460D46002BA0D0CDE90845A1E79FED8E
:10240000067B55EC174B8DED087B9AE7AFF3008008
:10241000000000000000F0BF000000000000F03FDE
:10242000FFFF0F00FFFFEF7F0000F07F000050393B
:102430000000F03F0000E03F0000E07FFFFF9F7CD6
:1024400003F15479049B4E46002BA8D129F0004398
:10245000129A1B0D1B059A42A1D120462946FEF770
:1024600007FCC9F31306FEF705F80B46024629469A
:10247000204646EA0806FDF773FE0E9B04460D460D
:102480001E434BD02EA3D3E90023FEF793FB002875
:102490007FF4C5AC204629462BA3D3E90023FEF7E1
:1024A000A7FB00283FF47BAFB9E4049B13B3129B56
:1024B000B3F1D46F1ED82046294625A3D3E90023C3
:1024C000FEF782FB90B129462046FEF79BFB0128D0
:1024D00038BF0120FDF782FF0E9B04460D46D3B99D
:1024E00001F1004314901593DDE9146707F1D663F9
:1024F000129A9F1A9DED0A0B39F0BEF93046394603
:1025000053EC102BFDF7E4FFDDE90A23FDF72AFE6B
:102510008046894696E7CDE91445E5E70EA3D3E961
:102520000023FEF747FBBCE7652A3FF443AB452A8F
:102530003FF440AB0123FFF779BB00BFAFF300804E
:102540009535A094FFFFDF3F35E5AF350000E03F54
:102550000000C0FFFFFFDF419535A094FFFFCF3F94
:102560002DE9F04F476A97B08346209E08910C9260
:10257000129355EC104B8DED000B7FB9102037F006
:10258000A5FE0246CBF8240020B9A74BEA21A748B4
:1025900039F03EFAC0E901770760C760DBF8243004
:1025A000196859B15A680123584693404A608B60B4
:1025B00038F090FEDBF8243000221A602B1EB7BFE3
:1025C00023F00043002301220193A8BF3360019F41
:1025D000974BB8BF3260BB4319D142F20F73129AC6
:1025E0001360C7F31303234300F0DB85219B53B92A
:1025F000904B21E0904B03930833219A136003988A
:1026000017B0BDE8F08F8B4B03930333F5E79DEDD7
:10261000007B0022002351EC170B8DED0A7BFEF7A7
:10262000BFFA804650B10123129A1360219B13B167
:10263000824B219A1360824B0393E0E7C7F30A565B
:1026400014AA15A958469DED0A0B39F089F9029094
:10265000002E76D00B9BA6F2FF36CDF84C80C3F34C
:10266000130343F07F53DDE90A0143F44013194695
:102670000022744BFDF774FD65A3D3E90023FDF739
:1026800027FF65A3D3E90023FDF76CFD04460D4643
:102690003046FDF7B3FE62A3D3E90023FDF718FF30
:1026A00002460B4620462946FDF75CFD04460D46D2
:1026B000FEF720F900220746002320462946FEF7B0
:1026C00079FA40B13846FDF799FE22462B46FEF7CF
:1026D00067FA00B9013F162F52D85B4B03EBC703D3
:1026E000DDE90A01D3E90023FEF764FA002849D0A6
:1026F000013F00231193149B9B1B5A1E4CBFC3F137
:1027000001030023079245BF069300230693079316
:10271000002F39DB079B10973B4407930023099355
:10272000089B092B66D8052BC5BF043B0024012458
:102730000893089B023B032B67D8DFE803F02D3A90
:102740003859DDE914631E4406F23243202BC9BF19
:10275000C3F14003C3F120039F4006F21243D8BFE8
:1027600004FA03F006F1FF36C4BF24FA03F347EA84
:102770000300FDF733FE0122A1F1F873139276E70F
:102780000123B7E71190B6E7069BDB1B06937B425C
:10279000099300231093C3E700230D930C9B002B98
:1027A00056DC012399461A4604930C920CE001234F
:1027B000F3E700230D930C9BFB1803F1010904932D
:1027C0004B46012BB8BF0123DBF824000021042273
:1027D00002F114059D423FD94160584638F03AFD58
:1027E000039000283BD1194B02464FF4D571CEE639
:1027F0000123DFE7012400230D9408934FF0FF33FA
:102800000022994604931223CFE701230D93F5E7A5
:1028100061436F63A787D23FB3C8608B288AC63FE6
:10282000FB799F501344D33F0CCC050023CC05000B
:102830000000F07F08CC0500FFCB0500DCCB0500D5
:10284000DBCB05000000F83FB88B04007DCC050011
:102850000C9B99460493B7E701315200B8E7DBF8C7
:102860002430B9F10E0F039A1A606FD8002C6DD086
:10287000002F36DD07F00F02A04BF8054FEA2714B2
:1028800003EBC20393ED007B8DED0E7B17D59C4BC4
:1028900004F00F044FF00308D3E90823DDE90A012F
:1028A000FDF740FFCDE90001954D5CB9DDE90E2350
:1028B000DDE90001FDF736FFCDE900012BE04FF027
:1028C0000208F1E7E10709D508F10108DDE90E0189
:1028D000D5E90023FDF7FCFDCDE90E0164100835B4
:1028E000E3E700F007817C42844B854D4FF00208FE
:1028F00004F00F02241103EBC203DDE90A01D3E95E
:102900000023FDF7E5FD0023CDE90001002C40F098
:10291000E580002BD0D1119BDDE90045002B00F0B4
:102920004C810022774B20462946FEF743F90028C8
:1029300000F04381B9F1000F00F03F81049B002BB0
:1029400000F3E480DDE90A34CDE90034159B002B67
:1029500002DB0E2F40F342820D9A002A40F067827C
:10296000099C0025DDF81880B8F1000F0DD0079BF9
:10297000002B0ADD4345069AA8BF4346D21AA8EBAE
:1029800003080692079AD31A0793099B0BB30D9B72
:10299000002B00F0A682002C00F0A18229462246DE
:1029A000584638F00BFE029A01460546584638F064
:1029B0005BFD02990646584638F08CFC099B1B1BB0
:1029C000099300F09182099A3146584638F0F6FD95
:1029D00002900121584638F031FD109B0446002B2F
:1029E00000F084821A460146584638F0E7FD089BFD
:1029F0000446012B03DC009B002B00F07C820026A8
:102A0000236904EB8303186945F0F9F8C0F120004D
:102A10001096079B184410F01F0000F09182C0F13F
:102A20002003042B40F38182C0F11C00069B034469
:102A300080440693079B03440793069B002B05DD08
:102A40001A460299584638F013FE0290079B002B55
:102A500005DD21461A46584638F00AFE0446119B09
:102A6000002B00F076822146029845F017F90028E5
:102A700080F26F8200230A220299584638F04CFCFB
:102A80000D9B7E1E0290002B00F05C8200232946E5
:102A90000A22584638F040FC049B0546002B03DC14
:102AA000089B022B00F35E82B8F1000F05DD29467A
:102AB0004246584638F0DCFD0546109B002B00F0DE
:102AC000D0826968584638F0C5FB0746002840F0B8
:102AD0007F820D4B024640F2EA2158E5E20706D517
:102AE00008F10108D5E90023FDF7F2FC0123641089
:102AF00008350BE74FF002080DE700BFB88B040064
:102B0000908B04000000F03F7DCC050020460022A1
:102B1000AC4B2946FDF7DCFC7E1E08F10108049C45
:102B2000CDE900014046FDF769FCDDE90023FDF732
:102B3000CFFCA54B0022FDF715FBA1F15073CDE9A9
:102B40000E010F93002C3BD10022A04BDDE90001C8
:102B5000FDF706FB02460B46CDE90023DDE90E2317
:102B6000FEF746F8002840F05781DDE90E2101F11B
:102B70000043DDE90001FEF71DF800283FF4E2AE56
:102B8000002425460C9BDDF80CA0DE434FF0000826
:102B90002146584638F09EFB002D00F0A980B8F180
:102BA000000F05D0A84503D04146584638F092FBA7
:102BB0002946584638F08EFB9AE03E464C46B1E72F
:102BC000834B03EBC40353E90201039B1C440D9B9D
:102BD000002B4AD002460B4600207E49FDF7A2FD9D
:102BE000DDE90E23FDF7BCFADDF80CA0CDE90E01FE
:102BF000DDE90001FDF77EFE0546FDF7FFFB02461D
:102C000030350B46DDE90001FDF7AAFA0AF8015B51
:102C100002460B46CDE90001DDE90E01FDF7E8FFB4
:102C2000002865D100206C49DDE90023FDF798FA02
:102C300002460B46DDE90E01FDF7DAFF002840F001
:102C40000D81A24500F0EA8000225E4BDDE90E0115
:102C5000FDF73EFC00225B4BCDE90E01DDE90001F2
:102C6000FDF736FCCDE90001C2E7DDE90E23FDF7F3
:102C70002FFCA046DDF80CA0CDE90E01DDE9000136
:102C8000FDF738FE0546FDF7B9FB024630350B4629
:102C9000DDE90001FDF764FA0AF8015B02460B4624
:102CA000A245CDE900234FF0000223D1494BDDE9D5
:102CB0000E01FDF757FA02460B46DDE90001FDF76C
:102CC00097FF002840F0CA8000204249DDE90E232A
:102CD000FDF746FA02460B46DDE90001FDF76AFF03
:102CE00070B1C24608F1FF381AF8013C302BF8D019
:102CF000374655E0334BFDF7EBFBCDE90001BDE76F
:102D0000DDE90A34CDE90034159B002BFFF628AE2F
:102D10000E2F3FF725AE2E4B03EBC70393ED007B41
:102D20000C9B002B8DED047B02DAB9F1000F64D00F
:102D3000DDF80CA0DDE90045DDE904232046294645
:102D4000FDF7F0FCFDF7D6FD0646FDF757FBDDE984
:102D50000423FDF7BDFB0246204606F130040B4676
:102D60002946FDF7FDF90AF8014B039C02460B4684
:102D7000AAEB0404A14540F08280FDF7F3F9044674
:102D80000D46DDE90423FDF733FF002865D1204619
:102D90002946DDE90423FDF703FF08B1F3075CD4FE
:102DA0000299584638F096FA002301378AF8003025
:102DB000129B1F60219B002B3FF421ACC3F800A0A5
:102DC0001DE400BF0000244000001C40000014402F
:102DD000B88B04000000E03F0000F03FA24B03EB83
:102DE000C70393ED007B0C9B002B8DED047B9FDADA
:102DF000B9F1000F9CDC7FF4C3AE00229B4BDDE9F0
:102E00000401FDF765FBDDE90023FDF7E7FE04465D
:102E100000287FF4B5AE3E462546B4E0DDE90A342D
:102E2000CDE90034159B002B01DB0E2FD6DD089A6F
:102E3000012A36DC139A82B303F23343099CDDF88E
:102E40001880069A012158461A440692079A1A4495
:102E5000079238F0F3FA054686E53E4653469A4611
:102E600013F8012D392A06D1039A9A42F7D130225C
:102E7000039901360A701A7801321A7038E7002275
:102E80007B4BFDF725FB0022002304460D46FDF792
:102E900087FE00283FF450AF82E7149BC3F136034E
:102EA000CCE709F1FF34099BA34208DBB9F1000F1D
:102EB000A3EB04040EDBDDF818804B46C1E7099B49
:102EC000109AE31A0994DDF8188000241A444B463E
:102ED0001092B6E7069BA3EB09080023B1E7029E18
:102EE00071E5099A029970E5029672E5089B012B3B
:102EF00017DC009BABB9019BC3F313039BB9019B88
:102F000023F00046360D360536B1069B0126013307
:102F10000693079B01330793109B002B7FF470AD42
:102F20001096012075E50026F6E73FF486AD1C33C8
:102F3000069A1A4498440692079A1A4407927CE526
:102F40000346F4E7049B002B2BDC089B022B09DCD7
:102F500027E0B9F1000F1DDC089B022B1ADD3E466D
:102F6000CDF81090049B002B7FF40CAE2146052277
:102F7000584638F0D1F901460446029844F08EFED6
:102F800000287FF7FFADDDF80CA0312301360AF8E9
:102F9000013BFBE50D9B3E46CDF81090002B7FF4E6
:102FA00083AD039F2146029844F055FC039B00F13A
:102FB0003009049A07F8019BFB1A9A4240F3CB8030
:102FC00000230A220299584638F0A6F90290E9E750
:102FD0002A6905F10C010C300232920044F095FA96
:102FE00001223946584638F043FB039BA846054664
:102FF00003F1010ADDE9032313440793009B03F067
:10300000010309930AF1FF3321460298049344F027
:1030100022FC4146069000F13009029844F03EFE41
:103020002A4621460746584638F08EFBC2680146BC
:1030300002B3584638F04EF9002F3ADA01220299CD
:10304000584638F015FB2146029044F027FE002830
:1030500003DC29D119F0010F26D0B9F1390F1DD1A8
:1030600032E02846C1E700BFB88B040000001440DE
:10307000000024400A90029844F010FE0A990C9037
:10308000584638F027F90C9A5ABB089B53B9099B4C
:1030900043B9B9F1390F17D0002F05DD069B03F1B5
:1030A000310901E0002F2ADADDF810A00AF8019BAF
:1030B0006EE5089B3B4304D1009B03F00103002B0A
:1030C000BCD0B9F1390F36D1049F392307F8013B41
:1030D000BA46013F1AF8013C392B5AD001333B70F4
:1030E00056E5002F06DB089B3B4306D1009B03F00F
:1030F000010313B9002AA1DCD6E7002AE1DC079B13
:1031000057460AF8019C53452ED000230A22029903
:10311000584638F001F9A84502904FF000034FF0EF
:103120000A02414658460BD138F0F6F8804605466B
:103130000AF1010A66E7DDF810A009F10109B5E717
:1031400038F0EAF82946804600230A22584638F02B
:10315000E3F80546ECE7049B4FF00008002BCCBFDA
:103160001F460127039B1F4401220299584638F04D
:103170007FFA2146029044F091FD0028A8DC02D19C
:1031800019F0010FA4D1BA4617F8013D302BFAD03F
:10319000FEE4039BBB429BD13123039A013613709B
:1031A000F6E4219B002B7FF425AA014BFFF744BADC
:1031B000FFCB050090B585B000AF4E4B1B6803F008
:1031C0000703022B71D96C4600233B7202237B72EA
:1031D0000122BA720322FA723B7304237B738CB010
:1031E000EC461CF110022DD04FF01A0E2AB1BEF1A0
:1031F000040F02DD404BCCF8143000233B72022355
:103200007B722AB1BEF1080F02DD3C4BCCF81830BE
:103210000123BB720323FB722AB1BEF10C0F02DD46
:10322000374BCCF81C3002233B7304237B73B2B1C1
:10323000BEF1100F02DD334BCCF820300CF124032B
:1032400000210AE06FF0004ED0E701F11000384491
:1032500010F8080C03F8010B01310529F5D9BEF16E
:10326000190F37DD1A234AB105213971002179710F
:10327000B9710321F9717868CCF8100000216FF35F
:1032800000016FF341016FF382016FF3C501032069
:1032900060F38811C3F30A0363F353216FF31F51E3
:1032A000002314480BF072FEA546124B1B6803F076
:1032B0000703022B11D814480BF0E2FC044628B98E
:1032C0000C4B1B6803F00703022B0CD82046143765
:1032D000BD4690BD6FF01B03C5E70C4A03210548AE
:1032E0003AF0BDFFE7E70A4A032102483AF0B7FF88
:1032F000ECE700BFC81B0020808C0400188D040080
:10330000CC8C0400408D0400648D0400D48C040037
:10331000F08C0400014B1870704700BFC11A0020E8
:1033200030B40E4C23880E4D45F823000D4840F86C
:1033300023100D4941F823205A1C0C4B83FB021328
:103340009B11C82101FB13232380094B1B88C72B2A
:1033500002D80133064A138030BC70470ABC0020F3
:103360003C5F00201C5C0020FC5800201F85EB51B6
:1033700008BC002070B5002111E04B4B1A880A44AC
:103380004A4C84FB0234D317C3EBA413C82404FBB8
:10339000132350F82320464B43F821200131C7293D
:1033A000EBDD444B00200021C3E90001002311E0C4
:1033B000404901EBC30051F8332040683C4C54F8BD
:1033C00023400133121940EBE47001EBC30441F8D0
:1033D00033206060C72BEBDD002429E023460C2C52
:1033E000B8BF0C230C3B2146BB2CA8BFBB2101F16D
:1033F0000C020D312F4D05EBC10655F831007668F2
:1034000005EBC30155F833504968401BA2EB03029A
:1034100002F101024FEAE27366EB0101FDF7E2FA05
:10342000234B53F824301B1A234A42F8243001342A
:10343000C72CD3DD1F4AD2F84036D2F84406C41751
:1034400004F02105C3F31302190D41EA0031C1F361
:1034500013010A44C0F313210A4402EB10722A44F8
:103460001249A1FB0251C90801EB810101EB810165
:10347000521A24F0170422449B1A60EBE2700F4AA0
:103480000F4903FB01F102FB0011A3FB02320A44C6
:103490001046002A03DBDB0843EA407070BD0733A7
:1034A00042F10000F7E700BF0ABC00201F85EB5186
:1034B000DC550020E8220020BC520020295C8FC28D
:1034C000F5285C8F604B00221A60604B1B88C72B6D
:1034D00001D8002070472DE9F047A8B05C48FFF7FD
:1034E00049FF0022154616460EE05A4B53F822308B
:1034F000D81703FB00F0A3FB033101EB40015B197C
:103500001D4641EB06060132C72AEEDD55EA0603E9
:1035100000F09580A0220021684644F01DF80824A0
:103520004FF0000AD0462DE04A4A52F820304FEAC8
:10353000E37904EB000E52F82E70FA1703FB02F247
:1035400007FB0922A3FB073E724413EB0C039C46C6
:1035500042EB01010130C4F1C8038342E4DC89027B
:103560002A4633464FEA8C2041EA9C51FDF73AFA4D
:1035700028AB03EB840343F8A00C504501DD8246E1
:10358000A0460134262C03DC002084460146E2E7F5
:10359000BAF5967F55DBB8F10F0F10DD08EBD87345
:1035A0005B1028AA02EB830252F8A02C02EB8200E7
:1035B000CAEBCA01B1EB400F01DC98469246B8F164
:1035C000080F35DD08F1FF3328AA02EB830353F817
:1035D000A02C28AB03EB880353F8A03CB8F1250FCF
:1035E00028DC08F1010128A800EB810151F8A01C9A
:1035F000A2EB43035B1807D0521AD2015B0092FB87
:10360000F3F313F17F0F17DB802BA8BF80230E4A43
:10361000C2F800A003EB08220F4B93FBF2F30F4A12
:1036200082FB0312DB17C3EBA20028B0BDE8F087D2
:103630000022CEE70021DBE76FF07F03E7E7002001
:10364000F3E70020F1E700BFB852002008BC0020DB
:10365000FC580020BC52002000F0490267666666F4
:103660002DE9F84F914B1B88C72B40F21481904BEA
:103670001B68B3F5967F01DA00240DE18D48FFF752
:1036800079FE05460022164614460EE08A4B53F892
:103690002230D81703FB00F0A3FB033101EB4001FC
:1036A0009B191E4641EB04040132C72AEEDD834814
:1036B000FFF760FE80460022914617460FE07E4BE2
:1036C00053F82230D81703FB00F0A3FB033101EBC2
:1036D000400113EB0903994641EB07070132C72A62
:1036E000EDDDE11701F02100C6F31303320D42EACC
:1036F0000432C2F313021344C4F31322134403EB42
:10370000147303446E4AA2FB0302D20802EB820246
:1037100002EB82029B1A21F017010B44F61A64EBAC
:10372000E374684B684A06FB02F203FB0422A6FB23
:10373000036313441946002BC0F2A280F00840EA4C
:103740004170C91038F0EEFE0446F91701F021006F
:10375000C9F313034FEA195242EA0732C2F31302C4
:103760001344C7F31322134403EB17730344544A5F
:10377000A2FB0302D20802EB820202EB82029B1A36
:1037800021F017010B44B9EB030967EBE3774D4BCD
:103790004D4A02FB09F203FB0722A9FB03931344E2
:1037A0001946002B70DB4FEAD90949EA4170C9106C
:1037B00038F0B8FE064644F61F639D426FDD98451B
:1037C0006FDD002C68D04FEAE4794FEA890343EAC1
:1037D0009473A20012EB040C49EB0303DB0043EAF1
:1037E0005C734FEACC0CBCEB040C63EB09031B01CC
:1037F00043EA1C734FEA0C1C1CEB040C49EB03035B
:1038000019014FEAE57A2A4653464FEA0C1041EA7D
:103810001C71FDF7E7F8022845DDF31705FB03F3FC
:1038200006FB0A33A5FB06263344590141EAD2615F
:103830005501AD1A61EB0301880040EA9570A900BB
:103840008D1843EB0003D9004FEAE87304FB03F340
:1038500008FB0933A4FB08284344E80041EA5571FA
:10386000FDF7C0F80346002813DB9B105B4203F210
:103870004C4403F5C873B3F5967F0DD900240BE0D3
:10388000073643F1000159E719F1070943F1000137
:1038900089E7C31CE9E700242046BDE8F88F00242F
:1038A000FAE70024F8E70024F6E700BF08BC002090
:1038B000B85200203C5F0020BC5200201C5C00205D
:1038C0001F85EB51295C8FC2F5285C8F08B1006819
:1038D000704710B5074C40F29D2322460649074821
:1038E00039F086FD064839F083FD40F29D212046DF
:1038F00007F05EFB688D0400988D0400AC8D040019
:10390000CC8D040010B5FFF7E1FF0378012B05D043
:10391000164A126812F0060F21D110BD0446134B4F
:103920001B6803F00703022B13D8E168104B1960E2
:10393000207A05F0E5FA03460028EED00B4A12681B
:1039400012F0070FE9D00B4A012108483AF091FC28
:10395000E3E7094A032105483AF081FCE5E7074A15
:10396000022102483AF085FCD7E700BFF81B00208F
:10397000D4630020F08D0400E08D0400108E04005C
:1039800008B50B4B1A780B4B9A700B4A1278DA7009
:103990000A4A12781A710A4A12785A719A790132CF
:1039A0009A7100231A46032106483CF0BFFD08BD6A
:1039B00015BC00201C12002014BC002013BC0020E9
:1039C000C01A00200012002008B5024823F05AFE59
:1039D00008BD00BFF011002008B5034B1870034864
:1039E00023F050FE08BD00BFC01A0020F0110020D7
:1039F00008B5034B1870034823F044FE08BD00BF10
:103A000015BC0020F011002008B5044B1870044BC1
:103A10001970044823F036FE08BD00BF14BC002016
:103A200013BC0020F011002030B589B04FF4FA60CB
:103A300038F0AAFD354843F07CF8E0B100238DF85A
:103A40001F300F238DF80C30012301930DF11F025D
:103A5000009203AA6A212D4838F04EFD024618B99B
:103A60009DF81F30712B0AD09DF81F10284839F09F
:103A700060FA09B030BD274839F05BFAF9E7122344
:103A80008DF80C3044238DF80D30204C6A2302222F
:103A900003A9204638F022FD10238DF80C300525AF
:103AA0008DF80D506A23022203A9204638F016FD36
:103AB00011238DF80C308DF80D506A23022203A9D2
:103AC000204638F00BFD142038F05EFD9DF81F10E5
:103AD000114839F02EFA05E0104839F02AFA28206A
:103AE00038F052FD22238DF80C300C23019304ABE7
:103AF0000093012303AA6A21044838F0FDFC014623
:103B00000028E9D1282038F03FFDEBE71C820400B3
:103B10004C8E0400388E0400788E0400988E0400C9
:103B200010B584B0194843F004F818B1184839F0BA
:103B300000FA0BE0174839F0FCF904B010BD164844
:103B400039F0F7F942F2107038F01EFD1C238DF8A1
:103B50000B300223019303AB009301230DF10B0201
:103B600055210A4838F0C8FC01460028E7D19DF8E5
:103B70000C109DF80D3041EA03210CB2074839F0D2
:103B8000D8F9E0B2FFF728FFDCE700BF1C82040091
:103B9000CC8E0400AC8E0400E48E0400008F040080
:103BA000F0B587B04FF4FA6038F0EEFC5A4842F0B6
:103BB000C0FF08B100250AE0584839F0BAF907B04B
:103BC000F0BD574839F0B5F9282038F0DDFC07235F
:103BD0008DF80B300923019303AB009301230DF102
:103BE0000B0257214C4838F087FC01460028E8D1E9
:103BF0009DF80C309DF80D60360246EA03469DF8AC
:103C00000E301E43C6F311069DF80F309DF81000CC
:103C1000000240EA03409DF811301843C0F3110739
:103C20009DF812309DF81340240244EA03449DF8A5
:103C300014301C43C4F3110438F0BCFC014600945A
:103C400033463A46374839F074F922463146384609
:103C5000FFF766FB0135344CA4FB0534E40804EBA4
:103C6000840404EB84042C1B04D054B3282038F0C3
:103C70008BFCACE7FFF726FC064638F09BFC0146C0
:103C80002A4B1B6832462A4839F053F9002E0ADCC9
:103C9000284A138801339BB213800A2BE5D10020F8
:103CA000FFF7A6FEE1E70536234B83FB0623F61755
:103CB000C6EBA300C0B2FFF79BFE1E4B00221A808A
:103CC000D3E7FFF7CDFC044638F074FC01462246EA
:103CD0001A4839F02EF9002C0BDC194A13880133ED
:103CE0009BB213800A2BC1D100210846FFF78CFE3E
:103CF000BCE7114B83FB0423E017C0EBA30000EBF0
:103D00008003A4EB4301C9B2C0B2FFF77DFE0C4BA8
:103D100000221A80AAE700BF1C820400108F040052
:103D2000288F04003C8F04001F85EB51B8520020FF
:103D30004C8F040006BC002067666666588F04003E
:103D400004BC002010B541F69A1200231D491E48FC
:103D500016F0DCFA68B104461C4B1B6813F0070F21
:103D600001D1204610BD1A4A012118483AF077FACD
:103D7000F7E741F69A1200231649174816F0C6FADB
:103D8000044650B1114B1B6813F0070FE9D0134ADA
:103D900001210E483AF063FAE3E741F69A12002354
:103DA0000F49104816F0B2FA04460028D9D0074B44
:103DB0001B6813F0070FD4D00B4A012103483AF0D7
:103DC0004EFACEE734880400C4870400F81B0020B4
:103DD000648F040040880400EC870400808F040096
:103DE00028880400B08704009C8F040010B588B0B8
:103DF00000220023CDE90623002304930522039229
:103E00000293019300932A4B4FF4006229492A48F8
:103E100023F0E4FF294B1860294923F099FE70B183
:103E20000446284B1B6813F0070F02D1204608B048
:103E300010BD254A012123483AF011FAF6E7002285
:103E40000023CDE906230023049305220392029365
:103E5000019300931D4B4FF400621D491D4823F050
:103E6000BDFF1D4B18601D4923F072FE044650B182
:103E7000144B1B6813F0070FD8D0194A01211148C1
:103E80003AF0EDF9D2E741F69A12002315491648A7
:103E900016F03CFA04460028C8D00A4B1B6813F001
:103EA000070FC3D0114A012106483AF0D8F9BDE7FF
:103EB000ED40000038D60020482C0020DC630020B4
:103EC000BC8F0400F81B0020CC8F0400CD3F000005
:103ED00038CE0020402B0020D8630020F08F040053
:103EE000049004004C880400008804002C90040016
:103EF0002DE9F04182B080460C4615461E46214A07
:103F000003CAC4F80B00C4F80F1003232B702368F6
:103F10001B686B604FF65861206838F0ACFB0746B1
:103F200058B1194B1B6813F0070F19D00346174AF5
:103F3000012115483AF09DF912E0013E019605F184
:103F4000080300932346124A0021404604F0B0FEC5
:103F5000061E09DB013623689B886B70089B1E6078
:103F6000384602B0BDE8F081074B1B6813F0070F1D
:103F700001D13746F4E73346064A012102483AF0B8
:103F800078F9F6E750900400F81B00205C900400DC
:103F9000563412008C90040010B504F055FF041E36
:103FA00004DB029B1C600024204610BD054B1B68EF
:103FB00013F0070FF8D02346034A012101483AF0D5
:103FC00058F9F1E7F81B0020C090040000B58BB051
:103FD0000CE0E1220092404A012140483AF054F9B5
:103FE00016E000F0BBFF3E4B1B7863BB4FF0FF3287
:103FF0004FF0FF33CDE9002303AA09A9394816F091
:10400000D5F868B10346354A126812F0070FE0D1BF
:10401000002383F31188BFF36F8F0323184602DF59
:104020009DF80C30042B2FD0052BDFD0032BD8D0DC
:104030002A4A126812F0060FD8D02B4A02212748CC
:104040003AF017F9D2E701F061F80020FFF762F9C2
:10405000022006F0E9FA03460028C7D01F4A12687A
:1040600012F0070F08D1002383F31188BFF36F8F7D
:104070000323184602DFB9E7F3220092164A012112
:1040800016483AF001F9EEE700F070FF144B1B7888
:10409000012BABD00120FFF73DF901F053FA0220CC
:1040A00006F08AFA03460028A0D00C4A126812F0E3
:1040B000070F08D1002383F31188BFF36F8F032309
:1040C000184602DF92E740F205120092024A0121EF
:1040D00002483AF0D9F8EDE7F4900400F81B00200C
:1040E000C11A0020408804001891040010B586B061
:1040F0007EE090220092674A012167483AF0C4F8B6
:1041000086E095220092634A012163483AF0BCF8A8
:1041100095E0614B1B6813F0060F01D106B010BD8E
:104120005E4A02215C483AF09AF8F7E7002004F072
:104130005DFF034600285BD0574A126812F0060F55
:1041400056D0574A022154483AF093F850E0554B64
:104150001968002004F0D4FE0346002848D04E4AD7
:10416000126812F0060F43D04F4A02214A483AF033
:1041700080F83DE04D4B1B785BB1474A126802F076
:104180000702022A34D94A4A032143483AF071F817
:104190002EE0484A137883F00103137063B100F0F6
:1041A00027FF044624B33C4B1B6813F0060F13D1C2
:1041B000404B00221A701BE0002000F0DFFE044696
:1041C000354B1B6803F00703022BEBD93A4A032156
:1041D00031483AF044F8E5E72346384A02212E48B0
:1041E0003AF047F8E4E72C4A126812F0060F4BD178
:1041F0004FF0FF324FF0FF3305A9314815F056FF5D
:1042000070B10346244A126812F0070F7FF471AFB1
:10421000002383F31188BFF36F8F0323184602DF57
:1042200040F6CD42002303A9059815F0F3FE03469E
:1042300068B1194A126812F0070F7FF462AF0023C9
:1042400083F31188BFF36F8F0323184602DF9DF8B5
:104250001030012B7FF45DAF039B002B8AD0032B22
:10426000C1D1124B1B78002B3FF460AF012B3FF400
:104270006EAF094A126812F0060FB9D0114A022136
:10428000054839F0F6FFB3E70F4A0221024839F03A
:10429000F0FFADE7F4900400F81B0020409104000B
:1042A00058910400D4630020F08D0400C11A00204E
:1042B0009091040012BC0020B4910400C491040049
:1042C0003488040078910400E091040010B586B0B1
:1042D000039004918DF81420174B1B780BB106B096
:1042E00010BD059B009303AB0CCB0021084604F0E6
:1042F000DFFE044658B1114B1B68834207D010F112
:104300008C0F07D00E4B1B6813F0060F0DD10B4B13
:104310001C60E4E70A4B1B6813F0060FF7D0094A4C
:104320000221074839F09BFFF1E70346064A0221C4
:10433000034839F09EFFEAE7C11A0020B45200207A
:10434000F81B00200492040020920400F0B587B00E
:1043500002AF8F4842F0EDFB002800F0ED808D4861
:1043600038F0E7FD8C4838F0E4FD08233B714F2519
:104370007D71874C57230222391D204638F0AEF854
:104380000A233B717D7157230222391D204638F0E4
:10439000A5F80C233B7160257D7157230222391D3E
:1043A000204638F09BF80D233B717D715723022284
:1043B000391D204638F092F80E233B7150257D714F
:1043C00057230222391D204638F088F80F233B710D
:1043D0007D7157230222391D204638F07FF81123C2
:1043E0003B7121237B7157230222391D204638F06F
:1043F00075F812233B7103237B7157230222391D69
:10440000204638F06BF804233B7100257D7157235B
:104410000222391D204638F061F805233B717D7179
:1044200057230222391D204638F058F806233B71E5
:104430007D7157230222391D204638F04FF8092399
:104440003B7107237B7157230222391D204638F028
:1044500045F8524838F06DFDFD60BD6006F0EEFE97
:10446000034660B14E4A126812F0070F68D100236C
:1044700083F31188BFF36F8F0323184602DFFEF723
:1044800099FE034660B1464A126812F0070F60D1E8
:10449000002383F31188BFF36F8F0323184602DFD5
:1044A00002F06AFC034660B13D4A126812F0070F41
:1044B00058D1002383F31188BFF36F8F032318466D
:1044C00002DF01F04FF9034660B1354A126812F07D
:1044D000070F50D1002383F31188BFF36F8F03239D
:1044E000184602DFFFF782FC0546002800F09D8099
:1044F0002B4B1B6813F0070F00F08A806E460023D9
:104500003B7102237B7188B002AC14F110023BD0E6
:104510000E201AB1042801DD224B636100233B7099
:1045200002237B70002A4FD0082801DD1E4BA361B7
:1045300004F11C03002145E01C4838F0FAFC96E326
:1045400040F26F4200921A4A0121154839F09CFE50
:104550008DE740F272420092154A0121104839F06D
:1045600093FE95E740F275420092114A01210C48F2
:1045700039F08AFE9DE74FF48F6200920C4A0121C8
:10458000074839F081FEA5E76FF00040C1E700BFA2
:104590001C8204006892040080920400A09204002F
:1045A000F81B002010A10400BC9204004C920400EF
:1045B000F490040001F1100CBC441CF810CC03F87A
:1045C00001CB01310129F5D90D2855DD0E2342B16A
:1045D0000321397100217971B9710121F97178686C
:1045E000206100216FF300016FF341016FF382013D
:1045F0006FF3C501012060F38811C3F30A0363F36D
:1046000053216FF31F510023A0480AF0BFFCB546A9
:104610009E4B1B6813F0070F31D1002383F31188E1
:10462000BFF36F8F0323184602DFFFF78BFB0546AE
:1046300000286CD0954B1B6813F0070F5AD06E46BC
:1046400000233B7102237B7188B002AC14F110028D
:104650001FD00E201AB1042801DD8D4B63610023A9
:104660003B7002237B700AB3082801DD894BA361EC
:1046700004F11C03002117E06FF01B03A7E740F2D1
:104680007B4300932B46844A0121804839F0FCFD8E
:10469000C3E76FF00040DDE701F1100CBC441CF8EB
:1046A00010CC03F801CB01310129F5D90D285BDDD0
:1046B0000E2342B10321397100217971B9710121B1
:1046C000F9717868206100216FF300016FF34101F7
:1046D0006FF382016FF3C501012060F38811C3F30A
:1046E0000A0363F353216FF31F51002367480AF055
:1046F0004DFCB546654B1B6813F0070F37D10023FF
:1047000083F31188BFF36F8F0323184602DF634CD6
:10471000204604F04BFD0021204604F06BFD0546C9
:1047200000286CD0594B1B6813F0070F5AD06E4607
:1047300000233B7102237B7188B002AC14F110029C
:104740001FD00E201AB1042801DD514B63610023F4
:104750003B7002237B700AB3082801DD504BA36134
:1047600004F11C03002117E06FF01B03A1E740F2E6
:104770007E4300932B46484A0121444839F084FD8A
:10478000BDE76FF00040DDE701F1100CBC441CF800
:1047900010CC03F801CB01310129F5D90D2865DDD5
:1047A0000E2342B10321397100217971B9710121C0
:1047B000F9717868206100216FF300016FF3410106
:1047C0006FF382016FF3C501012060F38811C3F319
:1047D0000A0363F353216FF31F5100232B480AF0A0
:1047E000D5FBB546294B1B6813F0070F41D10023B9
:1047F00083F31188BFF36F8F0323184602DF032072
:1048000014F08CFA00224FF4FA4100F03DFC05460A
:1048100000287BD01D4B1B6813F0070F69D06E4634
:1048200000233B7102237B7188B002AC14F11002AB
:1048300029D00E201AB1042801DD154B6361002335
:104840003B7002237B707AB3082801DD154BA3610E
:1048500004F11C030021012926D801F1100CBC44ED
:104860001CF810CC03F801CB0131F4E76FF01B0307
:1048700097E740F2844300932B46074A01210348FF
:1048800039F002FDB3E76FF00040D3E7F81B0020DA
:1048900010A10400E8920400F49004005852002093
:1048A00014930400349304000D2840F397800E23E2
:1048B00042B10321397100217971B9710121F97176
:1048C0007868206100216FF300016FF341016FF3FD
:1048D00082016FF3C501012060F38811C3F30A035D
:1048E00063F353216FF31F510023A8480AF04EFBD6
:1048F000B546A64B1B6813F0070F72D1002383F354
:104900001188BFF36F8F0323184602DF07F10C03F2
:10491000009314239E4A9F490020FFF7E9FA0346BB
:1049200060B19A4A126812F0070F64D1002383F332
:104930001188BFF36F8F0323184602DF07F10803C6
:1049400000930123944A95490020FFF725FB034675
:1049500060B18E4A126812F0070F55D1002383F31D
:104960001188BFF36F8F0323184602DF00200190E8
:10497000BB680093884BFA68854902F0E5FF05465D
:1049800000287ED0814B1B6813F0070F6CD06E4659
:1049900000233B7102237B7188B002AC14F110023A
:1049A0003BD00E201AB1042801DD7D4B636100234A
:1049B0003B7002237B709AB3082801DD794BA36119
:1049C00004F11C03002101292AD801F1100CBC4478
:1049D0001CF810CC03F801CB0131F4E76FF01B0396
:1049E00066E740F2894300932B466F4A01216748EE
:1049F00039F04AFC82E740F28E4200926A4A012175
:104A0000624839F041FC91E740F291420092664AD7
:104A100001215E4839F038FCA0E76FF00040C1E7A3
:104A20000D2851DD0E2342B1032139710021797126
:104A3000B9710121F9717868206100216FF30001DB
:104A40006FF341016FF382016FF3C501012060F341
:104A50008811C3F30A0363F353216FF31F5100233B
:104A60004A480AF093FAB546484B1B6813F0070F03
:104A70002DD1002383F31188BFF36F8F03231846D2
:104A800002DF424B1B6803F00703022B5BD96D4624
:104A900000233B7102237B7188B002AC14F1100239
:104AA0001FD00E201AB1042801DD404B63610023A2
:104AB0003B7002237B7012B3082801DD3C4BA361DD
:104AC00004F11C03002118E06FF01B03ABE740F278
:104AD000964300932B46344A01212C4839F0D4FBED
:104AE000C7E76FF00040DDE701F1100606EB070CA9
:104AF0001CF810CC03F801CB01310129F4D90D28A1
:104B000040DD0E2342B10321397100217971B97161
:104B10000121F9717868206100216FF300016FF3C2
:104B200041016FF382016FF3C501032060F3881127
:104B3000C3F30A0363F353216FF31F510023134898
:104B40000AF024FAAD464FF400320023CDE90023E9
:104B5000184825F013FA002300930322164917483A
:104B600012F0D6F9034668B310F1780F2AD0074A3D
:104B7000126812F0060F79D0114A0221034839F069
:104B800078FB73E06FF01B03BCE700BFF81B00204D
:104B90009462002034120020846200202C12002035
:104BA00010A1040058930400F49004007C930400C6
:104BB00050900400F01C002000120020F493040028
:104BC0009C9304002D4B1B6803F00703022B4DD967
:104BD0006D4600233B7102237B7188B002AC14F157
:104BE000100212D00E201AB1042801DD244B63619B
:104BF00000233B7002237B70A2B1082801DD214B0A
:104C0000A36104F11C0300210AE06FF00040EAE711
:104C100001F110063E4416F8106C03F8016B0131E7
:104C20000129F5D90D2825DD0E2342B10321397163
:104C300000217971B9710121F97178682061002131
:104C40006FF300016FF341016FF382016FF3C50150
:104C5000032060F38811C3F30A0363F353216FF356
:104C60001F51002305480AF091F9AD460020143782
:104C7000BD46F0BD6FF01B03D7E700BFF81B002057
:104C8000B8930400EC930400034B01221A70022233
:104C90005A751A75704700BF146400202DE9F04161
:104CA000ADF5806D02AF0026C7F8EC63B0E00023DD
:104CB00083F31188BFF36F8F0323184602DF07F5D4
:104CC0007E7303EB8405994B1A6855F8341C07F57D
:104CD000A27303EB841042F018FC55F8341C94487E
:104CE00019F0FEFA0134092C1DDC4FF0FF324FF0B1
:104CF000FF33CDE900238D4A07F5717303EB84017F
:104D00008B4819F0B9FA03460028D8D0894A1268AE
:104D100012F0070FCBD088220092874A01218548E4
:104D200039F0B2FAC3E7854B1B7B002B61D0844B73
:104D30001B68002B76D107F57B73824A4FF42071F4
:104D400007F5A27001F0AEFC0446002851D0794B63
:104D50001B6813F0070F3FD06D4600233B71022301
:104D60007B7188B002A911F1100200F09D804FF014
:104D70000E0C22B1BCF1040F01DD734B4B6100231B
:104D80003B7002237B70002A40F09180BCF10D0F34
:104D900040F39E800E2342B10320387100207871C9
:104DA000B8710120F871786808616FF300086FF33B
:104DB00041086FF382086FF3C508012161F3881879
:104DC000C3F30A0363F353286FF31F5800234146CC
:104DD00058480AF0DBF8AD46564B1B6813F0070F36
:104DE00079D1002383F31188BFF36F8F0323184613
:104DF00002DFB6F57A7F77D00136504B1B7B3BB193
:104E00004E4B5A7DD7F8EC134E4B1868FFF75EFAFD
:104E10004FF0FF324FF0FF3301214C4825F000FCEA
:104E2000002460E74A4A00924A4A4FF4A071381DB4
:104E300019F046F8034660B13E4A126812F0070FB7
:104E400022D1002383F31188BFF36F8F0323184609
:104E500002DF009707F5A27310224FF4A071381DEE
:104E60003DF02BFD034600283FF465AF314A126840
:104E700012F0070F10D1002383F31188BFF36F8F57
:104E80000323184602DF56E7972200922A4A01219F
:104E9000284839F0F9F9D4E79C220092264A0121EA
:104EA000244839F0F1F9E6E76FF0004C61E7BCF116
:104EB000080F01DD284B8B6101F11C03002004E089
:104EC00017F800E003F801EB01300128F8D95DE79D
:104ED0006FF01B035FE7A22300932346164A0121CC
:104EE000144839F0D1F97CE707F57C7207F57D713C
:104EF0000F4819F01DFA064600283FF47EAF0D4B0F
:104F00001B6813F0070F08D1002686F31188BFF342
:104F10006F8F0323184602DF6FE7A9230093034630
:104F2000054A0121034839F0AFF9EDE7E8630020B5
:104F3000E8120020381B0020F490040014640020C4
:104F4000F0630020E063002010A10400D4120020D0
:104F5000E4630020F46300204494040008B50021B9
:104F6000014825F0D1FC08BD3464002008B5024892
:104F700042F079FA08BD00BF3464002010B9184B24
:104F80001860704700B583B0B7EE000A4FF47A534B
:104F900082B21349134818F0C7FF034660B1124AA2
:104FA000126812F0070F0FD1002383F31188BFF3AB
:104FB0006F8F0323184602DF094B1B68202B0BD889
:104FC000002003B05DF804FBD0220092074A0121C3
:104FD000054839F059F9E7E76FF00B00F1E700BF3A
:104FE000F0630020F4630020381B0020F4900400DC
:104FF00010B5204B1B68A3B91E4B4FF47A721A6090
:105000001C4B1B68F3B11C4A126802F00702022A0B
:1050100012D8184B1868FFF7B1FF0446F0B92046C4
:1050200010BDB3F57A6F03D3124B00221A60E7E785
:105030005B00104A1360E3E7104A03210E4839F081
:1050400018F9E6E70C4B1B6803F00703022BE0D9C5
:105050000B4A0321084839F002F9DAE7064B1B68CE
:1050600013F0070FDBD0074A0121034839F0F7F8A6
:10507000D5E700BFEC630020381B002054940400E7
:105080006C9404007C94040070B505460E461446EA
:1050900037F0AAFA80B11A4B9D61204637F0A4FA86
:1050A000D8B1174B01221A719C603EB3144B0122F8
:1050B0001A731E61002022E0002DEED0114B1B68F8
:1050C00013F0070F02D16FF0150018E02B460E4ABF
:1050D00001210C4839F0CDF8F5E7002CE5D0094B5B
:1050E0001B6813F0070F02D16FF0150007E023468D
:1050F000054A0121034839F0BCF8F5E7002070BDEE
:1051000014640020381B00209C940400F0B58BB080
:1051100008AFFFF7B9FD9B4B93F86430002B44D0E8
:10512000994B93F86430002B00F0B380974C04F156
:1051300010030FCB8DE80F0094E80F0001F01EFC68
:105140000546002800F06181914B1B6813F0070FA2
:1051500000F04E816E4600233B7102237B7188B0C4
:10516000344616F1100200F009810E201AB104280D
:1051700001DD884B636100233B7002237B70002AB2
:1051800000F01281082801DD834BA36104F11C03A8
:105190000021012900F2088101F1080CBC441CF82F
:1051A00008CC03F801CB0131F3E7764819F042F956
:1051B00005460028B4D0764B1B6813F0070F4DD07E
:1051C0006E4600233B7102237B7188B0344616F192
:1051D000100212D00E201AB1042801DD6D4B63615C
:1051E00000233B7002237B70A2B1082801DD6B4BCA
:1051F000A36104F11C0300210AE06FF00040EAE71C
:1052000001F1080CBC441CF808CC03F801CB0131B7
:105210000129F5D90D282FDD0E2342B10321397163
:1052200000217971B9710121F9717868206100213B
:105230006FF300016FF341016FF382016FF3C5015A
:10524000012060F38811C3F30A0363F353216FF362
:105250001F5100234E4809F099FEB5464C4B1B6880
:1052600013F0070F0BD1002383F31188BFF36F8F67
:105270000323184602DF53E76FF01B03CDE740F22C
:105280007D1300932B46464A0121414838F0FCFF2C
:10529000E9E73D4819F0CEF8054600283FF446AF4F
:1052A0003B4B1B6813F0070F4DD06E4600233B713C
:1052B00002237B7188B0344616F1100212D00E2002
:1052C0001AB1042801DD334B636100233B700223D4
:1052D0007B70A2B1082801DD324BA36104F11C03ED
:1052E00000210AE06FF00040EAE701F1080CBC443D
:1052F0001CF808CC03F801CB01310129F5D90D28A0
:105300002FDD0E2342B10321397100217971B9716A
:105310000121F9717868206100216FF300016FF3BA
:1053200041016FF382016FF3C501012060F3881121
:10533000C3F30A0363F353216FF31F51002314488F
:1053400009F024FEB546124B1B6813F0070F0BD172
:10535000002383F31188BFF36F8F0323184602DF06
:10536000E4E66FF01B03CDE74FF4C17300932B46C7
:105370000B4A0121064838F087FFE9E76FF000404B
:10538000F4E600BF50130020E8120020146400204F
:10539000381B002010A10400F4940400BC94040005
:1053A000F4900400D89404000D285DDD0E2342B172
:1053B0000321397100217971B9710121F97178687E
:1053C000206100216FF300016FF341016FF382014F
:1053D0006FF3C501012060F38811C3F30A0363F37F
:1053E00053216FF31F510023474809F0CFFDB54605
:1053F000454B1B6813F0070F39D1002383F3118845
:10540000BFF36F8F0323184602DF404B01221A7748
:105410001B7B1BB13E4B1B68002B32D005F000FDFF
:10542000034660B1384A126812F0070F5AD10023C0
:1054300083F31188BFF36F8F0323184602DF3548CB
:1054400001F086F8034660B12F4A126812F0070F88
:1054500051D1002383F31188BFF36F8F03231846C4
:1054600002DF0C37BD46F0BD6FF01B039FE74FF422
:10547000C37300932B46284A0121234838F004FFC8
:10548000BBE700220023CDE9062300230493032277
:105490000392029301930093204B42F6F822204995
:1054A000204822F09BFC1A4B18601F4922F050FB49
:1054B00003460028B2D0144A126812F0070F08D130
:1054C000002383F31188BFF36F8F0323184602DF95
:1054D000A4E74FF4C87200920F4A01210A4838F03D
:1054E000D3FEEDE74FF4CC7200920B4A012106483F
:1054F00038F0CAFE9BE740F29B120092064A012157
:10550000014838F0C1FEA4E7381B002014640020D5
:1055100044640020E8120020F49004009D4C000038
:1055200038DE0020502D00200C95040010B50446F4
:10553000FFF7ECFD0249204639F00CF8002010BDC1
:1055400014950400F0B587B004AF644B1B7F5BB9C2
:10555000634B1B6813F0060F00F0B080614A022114
:105560005F4838F07CFEA9E005F090FC034660B18E
:105570005B4A126812F0070F51D1002383F31188A0
:10558000BFF36F8F0323184602DF01F023F80346B1
:1055900060B1534A126812F0070F49D1002383F318
:1055A0001188BFF36F8F0323184602DF4B4C04F1C1
:1055B00010030FCB8DE80F0094E80F0001F06AF99B
:1055C0000546002871D0464B1B6813F0070F5FD0CB
:1055D0006E4600233B7102237B7188B004AC14F14A
:1055E00010022ED00E201AB1042801DD3E4B63615B
:1055F00000233B7002237B7032B3082801DD3B4B54
:10560000A36104F11C03002101291DD801F1080C3C
:10561000BC441CF808CC03F801CB0131F4E74FF48B
:10562000D7720092324A01212D4838F02DFEA4E7AE
:1056300040F2B11200922E4A0121294838F024FE8E
:10564000ACE76FF00040CEE70D283ADD0E2342B103
:105650000321397100217971B9710121F9717868DB
:10566000206100216FF300016FF341016FF38201AC
:105670006FF3C501012060F38811C3F30A0363F3DC
:1056800053216FF31F510023154809F07FFCB546E5
:10569000134B1B6813F0070F16D1002383F31188F7
:1056A000BFF36F8F0323184602DF0C4B00221A77DB
:1056B000104818F075FE104818F072FE0C37BD4601
:1056C000F0BD6FF01B03C2E740F2B51300932B4609
:1056D000074A0121024838F0D7FDDEE714640020B4
:1056E000381B00202C95040010A1040048950400EC
:1056F000F4900400E81200205013002010B5044676
:10570000FFF720FF0249204638F024FF002010BD9B
:105710006095040010B584B000220023CDE9002379
:1057200002AA03A90C4818F0A7FD38B9044603994A
:10573000094818F0D5FD204604B010BD074B1B6882
:1057400013F0060F02D16FF08B04F4E7044A022134
:10575000024838F084FDF6E7E8120020381B0020EC
:105760007895040010B500F04FFF70B10446114B5E
:105770001B6813F0070F01D1204610BD03460E4AE7
:1057800001210C4838F075FDF6E705F08FFB044663
:1057900058B1084B1B6813F0070FEDD00346074ABA
:1057A0000121044838F065FDE6E7054841F056FE62
:1057B000E2E700BF381B002098950400C095040064
:1057C00034640020074B984203D0074B984204D022
:1057D0007047002283F880207047403B002283F806
:1057E0008120F5E7946F0020D46F0020034B002246
:1057F00083F8802083F88120704700BF946F0020D9
:1058000008B50021034B19704FF4A072024841F013
:10581000A3FE08BD16BC00201C70002008B502487D
:1058200021F030FF08BD00BFC013002008B10068A0
:10583000704710B5074C40F29D23224606490748A1
:1058400037F0D6FD064837F0D3FD40F29D212046C3
:1058500005F0AEFB688D0400988D0400AC8D04004B
:10586000CC8D040008B5401A63EB0303144A904240
:1058700073F1FF3202DA013843F1000311490A687B
:1058800001320A60B0F5FA7043F1FF3341F2893218
:10589000904273F1000300D208BDFFF73BFF18B937
:1058A000084B00221A60F7E7074B1B6813F0060F3E
:1058B000F2D0064A0221044838F0D1FCECE700BFE0
:1058C00001000080906F0020301B0020A096040093
:1058D00008B5FFF7ABFF02684168007A0B4B5B78B5
:1058E00043B10B4BC3F8F42F48B142B11046FFF758
:1058F000B9FF04E0074B1B6813F0060F00D108BD89
:10590000054A0221034838F0AAFCF8E75C71002040
:105910005C810020301B0020C096040090B583B04D
:1059200000AF384B1B78834228D0364B1870364B6B
:105930001B6803F00703022B5DD9344B53F820108A
:105940006C4600233B7102237B7188B0EC461CF14E
:1059500010021ED00E2022B1042802DD2C4BCCF800
:10596000143000233B7002237B70FAB1082801DD5C
:10597000CCF818100CF11C03002115E0224B1B6819
:1059800013F0060F37D0234A02211F4838F067FC76
:1059900031E06FF00040DEE701F1080EBE441EF872
:1059A00008EC03F801EB01310129F5D90D2825DDBB
:1059B0000E234AB10321397100217971B971012196
:1059C000F9717868CCF8100000216FF300016FF3D3
:1059D00041016FF382016FF3C501032060F3881169
:1059E000C3F30A0363F353216FF31F5100230648E7
:1059F00009F0CCFAA5460C37BD4690BD6FF01B03ED
:105A0000D7E700BF5C910020301B0020009D040000
:105A10002C970400F496040038B5504B1B78032BE8
:105A200007D8DFE803F0020D416D4D4BD3F8F43F8A
:105A300003B938BD494A53600120FFF76FFFF8E70B
:105A4000464A538801339BB25380632BF1D9A2F5A8
:105A5000005202F5005100234B804B6802F5805242
:105A6000D2F8F42F9B1A03F5C333A0333D4A02FB4F
:105A700003F33D4A82FB0302DB17C3EBA21303F5DA
:105A80001B40A630886003F6CE3341F29C729342ED
:105A900006D880B236F0DAFD0220FFF73FFFC8E7F4
:105AA0000020FFF73BFFC4E72C4A538801339BB229
:105AB0005380632BBDD9A2F5005303F50055002296
:105AC0006A8003F580530146D3F8F40F36F09FFD4A
:105AD00000EBD0704410234B04FB03F3224A82FBFB
