:020000040000FA
:1000000068260120ED270100C1EF0300D927010078
:10001000D9270100D9270100D9270100D9270100DC
:10002000000000000000000000000000392A01006C
:10003000D927010000000000A9290100D9270100EB
:10004000B52C0100B52C0100B52C0100B52C010028
:10005000B52C0100B52C0100B52C0100B52C010018
:10006000B52C0100B52C0100B52C0100B52C010008
:10007000B52C0100B52C0100B52C0100B52C0100F8
:10008000B52C0100B52C0100B52C0100B52C0100E8
:10009000B52C0100B52C0100B52C0100B52C0100D8
:1000A000B52C0100B52C0100B52C0100B52C0100C8
:1000B000B52C0100B52C0100B52C0100B52C0100B8
:1000C000B52C0100B52C0100B52C0100B52C0100A8
:1000D000B52C0100B52C0100B52C0100B52C010098
:1000E000B52C0100B52C0100B52C0100B52C010088
:1000F000B52C0100B52C0100B52C0100B52C010078
:10010000B52C0100B52C0100B52C0100B52C010067
:10011000B52C0100B52C0100B52C0100B52C010057
:10012000B52C0100B52C0100B52C0100B52C010047
:10013000B52C0100B52C0100B52C0100B52C010037
:10014000B52C0100B52C0100B52C0100B52C010027
:10015000B52C0100FFFFFFFF81F0004102E000BF6E
:1001600083F0004330B54FEA41044FEA430594EA77
:10017000050F08BF90EA020F1FBF54EA000C55EAB2
:10018000020C7FEA645C7FEA655C00F0E2804FEA83
:100190005454D4EB5555B8BF6D420CDD2C4480EA65
:1001A000020281EA030382EA000083EA010180EA95
:1001B000020281EA0303362D88BF30BD11F0004FE3
:1001C0004FEA01314FF4801C4CEA113102D0404219
:1001D00061EB410113F0004F4FEA03334CEA133354
:1001E00002D0524263EB430394EA050F00F0A7806C
:1001F000A4F10104D5F1200E0DDB02FA0EFC22FA67
:1002000005F2801841F1000103FA0EF2801843FA5A
:1002100005F359410EE0A5F120050EF1200E012A4B
:1002200003FA0EFC28BF4CF0020C43FA05F3C01889
:1002300051EBE37101F0004507D54FF0000EDCF102
:10024000000C7EEB00006EEB0101B1F5801F1BD3AB
:10025000B1F5001F0CD349085FEA30004FEA3C0CAF
:1002600004F101044FEA445212F5800F80F09A80A5
:10027000BCF1004F08BF5FEA500C50F1000041EBA9
:10028000045141EA050130BD5FEA4C0C404141EBAD
:100290000101013C28BFB1F5801FE9D291F0000FA8
:1002A00004BF01460020B1FA81F308BF2033A3F157
:1002B0000B03B3F120020CDA0C3208DD02F1140C4E
:1002C000C2F10C0201FA0CF021FA02F10CE002F189
:1002D0001402D8BFC2F1200C01FA02F120FA0CFC82
:1002E000DCBF41EA0C019040E41AA2BF01EB0451CB
:1002F000294330BD6FEA04041F3C1CDA0C340EDCC9
:1003000004F11404C4F1200220FA04F001FA02F30B
:1003100040EA030021FA04F345EA030130BDC4F1C9
:100320000C04C4F1200220FA02F001FA04F340EABE
:100330000300294630BD21FA04F0294630BD94F06F
:10034000000F83F4801306BF81F480110134013D56
:100350004EE77FEA645C18BF7FEA655C29D094EAC7
:10036000050F08BF90EA020F05D054EA000C04BF45
:100370001946104630BD91EA030F1EBF0021002030
:1003800030BD5FEA545C05D14000494128BF41F0CF
:10039000004130BD14F580043CBF01F5801130BD33
:1003A00001F0004545F0FE4141F470014FF00000BE
:1003B00030BD7FEA645C1ABF194610467FEA655C6F
:1003C0001CBF0B46024650EA013406BF52EA033511
:1003D00091EA030F41F4002130BD00BF90F0000FFF
:1003E00004BF0021704730B54FF4806404F132043B
:1003F0004FF000054FF0000150E700BF90F0000FF4
:1004000004BF0021704730B54FF4806404F132041A
:1004100010F0004548BF40424FF000013EE700BFEA
:1004200042004FEAE2014FEA31014FEA02701FBF7A
:1004300012F07F4393F07F4F81F06051704732F0AC
:100440007F4208BF704793F07F4F04BF41F4002103
:10045000704730B54FF4607401F0004521F0004161
:100460001CE700BF50EA010208BF704730B54FF0EB
:1004700000050AE050EA010208BF704730B511F0EC
:10048000004502D5404261EB41014FF4806404F124
:1004900032045FEA915C3FF4D8AE4FF003025FEAAA
:1004A000DC0C18BF03325FEADC0C18BF033202EB2E
:1004B000DC02C2F1200300FA03FC20FA02F001FA88
:1004C00003FE40EA0E0021FA02F11444BDE600BF2B
:1004D00070B54FF0FF0C4CF4E06C1CEA11541DBFDA
:1004E0001CEA135594EA0C0F95EA0C0F00F0DEF8A5
:1004F0002C4481EA030621EA4C5123EA4C5350EA8A
:10050000013518BF52EA033541F4801143F48013DA
:1005100038D0A0FB02CE4FF00005E1FB02E506F06B
:100520000042E0FB03E54FF00006E1FB03569CF0C0
:10053000000F18BF4EF0010EA4F1FF04B6F5007FC6
:1005400064F5407404D25FEA4E0E6D4146EB060638
:1005500042EAC62141EA55514FEAC52040EA5E50C1
:100560004FEACE2EB4F1FD0C88BFBCF5E06F1ED86B
:10057000BEF1004F08BF5FEA500E50F1000041EBA2
:10058000045170BD06F0004646EA010140EA02004F
:1005900081EA0301B4EB5C04C2BFD4EB0C0541EA71
:1005A000045170BD41F480114FF0000E013C00F386
:1005B000AB8014F1360FDEBF002001F0004170BDAA
:1005C000C4F10004203C35DA0C341BDC04F11404C3
:1005D000C4F1200500FA05F320FA04F001FA05F24F
:1005E00040EA020001F0004221F0004110EBD3701C
:1005F00021FA04F642EB06015EEA430E08BF20EA48
:10060000D37070BDC4F10C04C4F1200500FA04F3EA
:1006100020FA05F001FA04F240EA020001F000417C
:1006200010EBD37041F100015EEA430E08BF20EAEF
:10063000D37070BDC4F1200500FA05F24EEA020E37
:1006400020FA04F301FA05F243EA020321FA04F066
:1006500001F0004121FA04F220EA020000EBD3701D
:100660005EEA430E08BF20EAD37070BD94F0000F1D
:100670000FD101F00046400041EB010111F4801F51
:1006800008BF013CF7D041EA060195F0000F18BF02
:10069000704703F00046520043EB030313F4801F3E
:1006A00008BF013DF7D043EA0603704794EA0C0FF8
:1006B0000CEA135518BF95EA0C0F0CD050EA41060E
:1006C00018BF52EA4306D1D181EA030101F000418B
:1006D0004FF0000070BD50EA410606BF10461946B3
:1006E00052EA430619D094EA0C0F02D150EA0136BF
:1006F00013D195EA0C0F05D152EA03361CBF104600
:1007000019460AD181EA030101F0004141F0FE419E
:1007100041F470014FF0000070BD41F0FE4141F422
:10072000780170BD70B54FF0FF0C4CF4E06C1CEA22
:1007300011541DBF1CEA135594EA0C0F95EA0C0FD7
:1007400000F0A7F8A4EB050481EA030E52EA033592
:100750004FEA013100F088804FEA03334FF08055B3
:1007600045EA131343EA12634FEA022245EA1115E0
:1007700045EA10654FEA00260EF000419D4208BF91
:10078000964244F1FD0404F5407402D25B084FEA3E
:100790003202B61A65EB03055B084FEA32024FF4EA
:1007A00080104FF4002CB6EB020E75EB030E22BF47
:1007B000B61A754640EA0C005B084FEA3202B6EB07
:1007C000020E75EB030E22BFB61A754640EA5C00B6
:1007D0005B084FEA3202B6EB020E75EB030E22BF46
:1007E000B61A754640EA9C005B084FEA3202B6EB47
:1007F000020E75EB030E22BFB61A754640EADC0006
:1008000055EA060E18D04FEA051545EA16754FEA67
:1008100006164FEAC30343EA52734FEAC2025FEA85
:100820001C1CC0D111F4801F0BD141EA00014FF014
:1008300000004FF0004CB6E711F4801F04BF0143E5
:100840000020B4F1FD0C88BFBCF5E06F3FF6AFAE01
:10085000B5EB030C04BFB6EB020C5FEA500C50F191
:10086000000041EB045170BD0EF0004E4EEA113114
:1008700014EB5C04C2BFD4EB0C0541EA045170BD1B
:1008800041F480114FF0000E013C90E645EA060E5F
:100890008DE60CEA135594EA0C0F08BF95EA0C0F8D
:1008A0003FF43BAF94EA0C0F0AD150EA01347FF4D5
:1008B00034AF95EA0C0F7FF425AF104619462CE7AC
:1008C00095EA0C0F06D152EA03353FF4FDAE10460F
:1008D000194622E750EA410618BF52EA43067FF460
:1008E000C5AE50EA41047FF40DAF52EA43057FF4F0
:1008F000EBAE12E74FEA410212F5001215D211D504
:100900006FF47873B3EB625212D94FEAC12343F00C
:10091000004343EA505311F0004F23FA02F018BF8E
:10092000404270474FF00000704750EA013005D157
:1009300011F0004008BF6FF0004070474FF000001A
:10094000704700BF4FEA4102B2F1E04324BFB3F564
:10095000001CDCF1FE5C0DD901F0004C4FEAC00236
:100960004CEA5070B2F1004F40EB830008BF20F01A
:100970000100704711F0804F21D113F13872BCBFD4
:1009800001F00040704741F480114FEA5252C2F129
:100990001802C2F1200C10FA0CF320FA02F018BF72
:1009A00040F001004FEAC1234FEAD32303FA0CFCC5
:1009B00040EA0C0023FA02F34FEA4303CCE77FEA54
:1009C000625307D150EA01331EBF4FF0FE4040F49E
:1009D0004000704701F0004040F0FE4040F400004D
:1009E000704700BF7BB972B90029BEBF00204FF02D
:1009F000004106E008BF00281CBF6FF000414FF027
:100A0000FF3000F075B8ADF1080C6DE904CE002997
:100A100009DB002B1ADB00F042F9DDF804E0DDE928
:100A2000022304B07047404261EB4101002B1BDB05
:100A300000F035F9DDF804E0DDE9022304B04042BE
:100A400061EB4101524263EB43037047524263EB57
:100A5000430300F024F9DDF804E0DDE9022304B0EB
:100A6000404261EB41017047524263EB430300F0A7
:100A700016F9DDF804E0DDE9022304B0524263EB2D
:100A80004303704753B94AB9002908BF00281CBF67
:100A90004FF0FF314FF0FF3000F02AB8ADF1080CF5
:100AA0006DE904CE00F0FBF8DDF804E0DDE9022397
:100AB00004B07047D0B500220B4B06460F46FFF737
:100AC00007FD00F09FF80446FFF788FC0022074B63
:100AD000FFF7FEFC02460B4630463946FFF740FB67
:100AE00000F090F82146D0BD0000F03D0000F0413C
:100AF000704700BF4FF0FF3C06E000BF4FF0010C15
:100B000002E000BF4FF0010C4DF804CD4FEA410C5C
:100B10007FEA6C5C4FEA430C18BF7FEA6C5C1BD029
:100B200001B050EA410C0CBF52EA430C91EA030FAA
:100B300002BF90EA020F0020704710F1000F91EA07
:100B4000030F58BF994208BF90422CBFD8176FEAD5
:100B5000E37040F0010070474FEA410C7FEA6C5CA3
:100B600002D150EA013C07D14FEA430C7FEA6C5CAA
:100B7000D6D152EA033CD3D05DF8040B704700BFD6
:100B80008446104662468C461946634600E000BF24
:100B900001B5FFF7B7FF002848BF10F1000F01BDF6
:100BA0004DF808EDFFF7F4FF0CBF012000205DF8C1
:100BB00008FB00BF4DF808EDFFF7EAFF34BF012046
:100BC00000205DF808FB00BF4DF808EDFFF7E0FFDF
:100BD00094BF012000205DF808FB00BF4DF808ED30
:100BE000FFF7CEFF94BF012000205DF808FB00BF97
:100BF0004DF808EDFFF7C4FF34BF012000205DF879
:100C000008FB00BF4A0011D212F5001211D20DD517
:100C10006FF47873B3EB62520ED44FEAC12343F002
:100C2000004343EA505323FA02F070474FF00000AC
:100C3000704750EA013002D14FF0FF3070474FF05B
:100C4000000070474FEA410C7FEA6C5C02D150EA29
:100C5000013C0AD14FEA430C7FEA6C5C02D152EAB4
:100C6000033C02D14FF0000070474FF00100704785
:100C700038B50022002304460D46FFF79BFF28B934
:100C800020462946BDE83840FFF714BF204605F14D
:100C90000041FFF70FFF404261EB410138BD2DE9F4
:100CA000F04786468C460846089E15467446194607
:100CB000002B40F0C1808542B2FA82F245D94AB198
:100CC000C2F1200300FA02FC954094402EFA03F38F
:100CD00043EA0C0C4FEA154EA8B2230CBCFBFEF8FD
:100CE0000EFB18CC08FB00F943EA0C43994528D9C0
:100CF000EB1808F1FF3704D2994502D9A8F1020791
:100D00002B44A3EB0903A4B2B3FBFEFC0EFB1C3384
:100D10000CFB00F044EA0344A04214D92C190CF156
:100D2000FF3304D2A04202D9ACF102032C44241AAE
:100D300043EA07401EB1D440002334607360BDE82D
:100D4000F0874746DDE76346F1E792BB431B01218D
:100D50004FEA154EAFB2200CB3FBFEFC0EFB1C336A
:100D60000CFB07F840EA0343984561D9EB180CF1F6
:100D7000FF3004D2984502D9ACF102002B44A3EB1A
:100D80000803A4B2B3FBFEFC0EFB1C330CFB07F7FD
:100D900044EA0344A7424DD92C190CF1FF3304D285
:100DA000A74202D9ACF102032C44E41B43EA004001
:100DB000C0E7C2F120039540944020FA03F12EFAD7
:100DC00003F34FEA154E9040AFB20343B1FBFEFC74
:100DD0000EFB1C10190C0CFB07F841EA004188457A
:100DE00022D969180CF1FF3004D2884502D9ACF140
:100DF00002002944A1EB08019BB2B1FBFEFC0EFBF3
:100E00001C110CFB07F743EA01439F420ED9EB1874
:100E10000CF1FF3104D29F4202D9ACF102012B4404
:100E2000DB1B41EA004193E76046E3E76146F7E7F1
:100E30006046A4E76346B8E7834206D916B90021A5
:100E400008467CE7C6E900E0F9E7B3FA83F78FB913
:100E5000834201D3724508D8BEEB020460EB030362
:100E600001209C461EB9002169E73846FAE7C6E929
:100E7000004CF8E7C7F1200CBB400EFA07F522FA48
:100E80000CF42EFA0CF1BA401C4320FA0CF3B840D3
:100E90004FEA144901431FFA84FEB3FBF9F809FB3A
:100EA00018300B0C08FB0EFA43EA00439A4540D970
:100EB000E31808F1FF3004D29A4502D9A8F10200E4
:100EC0002344A3EB0A0389B2B3FBF9F809FB1833F7
:100ED00008FB0EFE41EA03418E452CD9611808F14A
:100EE000FF3304D28E4502D9A8F10203214443EA1C
:100EF0000040A1EB0E01A0FB02984145CE464346BF
:100F000002D306D14D4504D20138B9EB020E68EB8D
:100F10000403002EA7D0B5EB0E0261EB030101FA2A
:100F20000CFC22FA07F3F9404CEA0303C6E900314E
:100F300099E74046C5E74346D9E770B4840746D0F1
:100F40004C1E002941D0D5B2034602E0611EE4B335
:100F50000C4603F8015B9907F8D1032C2ED9D5B2C2
:100F600045EA05250F2C45EA054519D9264603F122
:100F70001001103E0F2E41F8105C41F80C5C41F856
:100F8000085C41F8045C01F11001F2D8A4F11001F1
:100F900021F00F0104F00F041031032C0B440DD984
:100FA0001E4621460439032946F8045BFAD8211F5E
:100FB00021F0030104310B4404F003042CB1D2B23C
:100FC0001C4403F8012BA342FBD170BC70470C46B4
:100FD0000346C2E710F8012B11F8013B012A28BF94
:100FE0009A42F7D0D01A7047034613F8012B002A13
:100FF000FBD1181A0138704710B584460C460C48CE
:10100000ACFB000108A3D3E900234FF0070E0EFB51
:101010000C11FFF737FD074B1B68074A02FB030063
:10102000204410BDAFF3008000CA9A3B00000000CE
:101030008D49FD1AD89500200080841E0000000014
:101040002DE9F04F8DB009900D46174645F0A3FEEF
:101050004B0143EAD0634401241A63EB01039B0074
:1010600043EA9473A400241843EB0101C90041EA48
:101070005471C4F3103444EA41444FEAD139012D8C
:1010800065D07D6829463C48FFF7A4FF28B1294672
:101090003A48FFF79FFF002861D135A3D3E9002329
:1010A00020464946FFF79EFC80460A9130A3D3E9CB
:1010B000002320464946FFF795FC15461C46304A5A
:1010C000002328462146FFF78DFC06460F462C4A92
:1010D000002328462146FFF785FC15461C464EF6A0
:1010E0006022002328462146FFF77CFC81460B91B5
:1010F0004EF66022002328462146FFF773FC154672
:101100001C464FF47A72002328462146FFF76AFCFA
:1011100083468A464FF47A72002328462146FFF719
:1011200061FCCDE90623CDF810B0CDF814A0CDF8C0
:1011300008900B9A03920096019742460A9B114928
:1011400009983CF0B3FF00200DB0BDE8F08F2246B7
:101150004B460D4909983CF0A9FF0020F4E72A46C8
:101160000A4909983CF0B1FF6FF00400ECE700BFBA
:10117000005C26050000000074C9040078C9040062
:1011800080EE36009CC9040060C9040084C90400D4
:1011900010B50468E217530143EAD4636101091BE7
:1011A00063EB02035B0243EAD1534902091942EBA4
:1011B000030C4FEA8C1E4EEA916E8B015B1A6EEBAC
:1011C0000C0E1B1942EB0E0241685B1842EBE172F8
:1011D000012B72F100011ADBD91842EB0200CB1887
:1011E00042EB0002110141EA13711801C01A61EBD0
:1011F0000201890041EA90718000154BC01812A3CA
:10120000D3E9002341F10001FFF7ECFB10BDD91831
:1012100042EB0200CB1842EB0002110141EA1371CC
:101220001801C01A61EB0201890041EA9071800047
:10123000084BC01804A3D3E9002361F10001FFF7B4
:10124000D1FBE3E7AFF30080D8EF2F0000000000F0
:10125000ECF717001408E8FF2DE9F0470D46174694
:101260001E46032800F29080DFE800F00222418B46
:10127000B2F90400A0FB0606C217474BA0FB0346C9
:1012800003FB026642A3D3E9002320463146FFF761
:10129000A9FB2860414A002320463146FFF7A2FB04
:1012A0003E4A0023FFF79EFB6A600020BDE8F087FE
:1012B000B2F90600A0FB0606C217374BA0FB034697
:1012C00003FB026632A3D3E9002320463146FFF731
:1012D00089FB2860314A002320463146FFF782FB14
:1012E0002E4A0023FFF77EFB6A600020DEE7B2F99A
:1012F0000800A0FB0606C217274BA0FB034603FB12
:10130000026623A3D3E9002320463146FFF76AFB98
:101310002860224A002320463146FFF763FB1F4A1C
:101320000023FFF75FFB6A600020BFE7A94607EBD9
:101330004803B3F90400A0FB0603C217164CA0FB38
:1013400004A004FB020412A3D3E900235046214663
:10135000FFF748FB49F8080B104A00235046214686
:10136000FFF740FB0D4A0023FFF73CFB6A6008F1E2
:1013700001085FFA88F84D46B8F1020FD6D900206F
:1013800094E74FF00008F7E76FF085008EE700BFA5
:101390000010A5D4E80000003AA3950040420F00D9
:1013A0002DE9F0470E4617461D460438032800F283
:1013B000C181DFE810F004006E00D700BC01B2F973
:1013C0001020D317A5FB020205FB0322D41704F05B
:1013D000030520F07043010F41EA021121F0704132
:1013E0000B4403EB12632B44D949A1FB035727F0AD
:1013F000030505EB97055B1B24F003042344C01A87
:1014000062EBE3724FF0CC3300FB03F301FB0232DB
:10141000A0FB01031344D90F091843F10003490845
:1014200041EAC371CA174B1842EB02055C1842EB44
:1014300005052D0245EA14652402641A65EB0205D0
:10144000ED0145EA5465E401641A65EB0205AD005F
:1014500045EA9475A400641A65EB0205ED0045EABF
:101460005475E400B6A3D3E9002320462946FFF7CC
:10147000B9FA3060B4A3D3E9002320462946FFF728
:10148000B1FAB44A0023FFF7ADFA72600020BDE85C
:10149000F087B2F91220D317A5FB020205FB032245
:1014A000D41704F0030520F07043010F41EA021144
:1014B00021F070410B4403EB12632B44A449A1FBC0
:1014C000035727F0030505EB97055B1B24F0030486
:1014D0002344C01A62EBE3724FF0CC3300FB03F3FA
:1014E00001FB0232A0FB01031344D90F091843F199
:1014F0000003490841EAC371CA174B1842EB0205C1
:101500005C1842EB05052D0245EA14652402641AB5
:1015100065EB0205ED0145EA5465E401641A65EBEB
:101520000205AD0045EA9475A400641A65EB020556
:10153000ED0045EA5475E40081A3D3E90023204679
:101540002946FFF74FFA30607FA3D3E900232046F6
:101550002946FFF747FA7F4A0023FFF743FA7260F4
:10156000002094E7B2F91420D317A5FB020205FB73
:101570000322D41704F0030520F07043010F41EA61
:10158000021121F070410B4403EB12632B447049AC
:10159000A1FB035727F0030505EB97055B1B24F020
:1015A00003042344C01A62EBE3724FF0CC3300FB18
:1015B00003F301FB0232A0FB01031344D90F091806
:1015C00043F10003490841EAC371CA174B1842EBC3
:1015D00002055C1842EB05052D0245EA146524025C
:1015E000641A65EB0205ED0145EA5465E401641AED
:1015F00065EB0205AD0045EA9475A400641A65EB3D
:101600000205ED0045EA5475E4004DA3D3E900233B
:1016100020462946FFF7E6F930604BA3D3E90023C3
:1016200020462946FFF7DEF94A4A0023FFF7DAF998
:10163000726000202BE7B14608F1080337F9132048
:10164000D317A5FB020205FB0322D41704F0030CF9
:1016500020F07043010F41EA021121F070410B4468
:1016600003EB126363443A49A1FB03CE2EF0030C53
:101670000CEB9E0CA3EB0C0324F003042344C01AD0
:1016800062EBE3724FF0CC3300FB03F301FB023259
:10169000A0FB01031344DA0F121843F100035208B0
:1016A00042EAC372D31712EB020C43EB030A1CEBA2
:1016B000020443EB0A0A4FEA0A2A4AEA146A24029D
:1016C000A41A6AEB030A4FEACA1A4AEA546AE40106
:1016D000A41A6AEB030A4FEA8A0A4AEA947AA40037
:1016E000A41A6AEB030A4FEACA0A4AEA547AE400E7
:1016F00013A3D3E9002320465146FFF773F949F8B5
:10170000080B11A3D3E9002320465146FFF76AF9DD
:10171000104A0023FFF766F9726008F101085FFACA
:1017200088F84E46B8F1020F85D90020AFE64FF099
:101730000008F7E76FF08500A9E600BFAFF300806F
:1017400000209BF35E10000080A812010000000042
:10175000CDCCCCCC40420F0038B504464068072AB7
:1017600006D00A2A45D0002A3ED06FF0850038BD49
:101770001D68E917480140EAD5606A01521B60EB19
:101780000100400240EAD2505202521941EB000CD3
:101790004FEA8C1E4EEA926E9001801A6EEB0C0E90
:1017A000401941EB0E015B68181841EBE371012809
:1017B00071F100030DDB204BC0181DA3D3E90023FA
:1017C00041F10001FFF70EF9014620461AF096FD9F
:1017D000CDE71A4BC01816A3D3E9002361F100012D
:1017E000FFF700F90146F0E71988204640F041FB79
:1017F000BDE71B68072B15D8DFE803F004101406BB
:10180000080A0C0E00210AE0032108E0042106E08A
:10181000052104E0062102E0072100E001213DF05E
:101820004DF8A4E76FF00400A1E700BFAFF300801C
:101830003AA39500000000009DD14A00632EB5FF39
:1018400030B589B00C9D00283FD00446002949D00E
:10185000D0F8200110F0010F51D10020C4F8080188
:10186000C4F80C0104F58870C4F81001C4F8140120
:1018700004F58C70C4F81801C4F81C01002D4BD07D
:10188000287900284AD10120C4F820019FED267B49
:101890008DED067B0020049003930290019000944C
:1018A000234B204626F092F855B1296811B1204605
:1018B00025F046FF6B791BB1237B43F001032373B3
:1018C000204645F010F909B030BD1A4C40F2DF2334
:1018D0002246194919483BF037FB40F2DF212046E8
:1018E00009F05EF9134C4FF438732246144913483B
:1018F0003BF02AFB4FF43871204609F051F90D4CAA
:1019000040F2E12322460F490C483BF01DFB40F218
:10191000E121204609F044F90120B5E740F2011029
:10192000B2E700BFAFF30080FFFFFFFFFFFFFFFF45
:10193000A96E0200E04B0500B04C05000C890400C4
:10194000B84C0500C04C05009FED010B704700BF6F
:10195000000000000000F87F2DE9F04F1F469DB009
:1019600000230C4682460F9218934FF00008984BC4
:101970004FF000091D682846FFF736FB22468346D4
:10198000179213782B2B3BD02CD80D2B26D8082B55
:1019900026D8002B2FD000230D93179E3378302BA1
:1019A00074D1737803F0DF03582B65D10D9B17A911
:1019B000884A5046019318AB0297009319AB39F04F
:1019C00001F810F00705044635D0062D1AD10F9BFB
:1019D0000BB101361E6042464B4637E0202BDAD170
:1019E0000132CDE72D2BD6D101230D93531C179334
:1019F0005378002BD1D10F9B002BECD01C60EAE771
:101A00000023F2E7189A3AB135211AA845F03FFFB2
:101A10001899504639F056FA013D199A042D06D806
:101A2000DFE805F0190322251900DDE91A892107ED
:101A300001D549F000490F9B13B1179B0F9A136012
:101A40000D9B002BC7D0424609F1004343EC102BFD
:101A50001DB0BDE8F08FDDE91A8302F2334223F4B2
:101A6000801343EA0259E2E7DFF86C91DFE76FF099
:101A700000494FF0FF38DAE7179B5A1C17925B7842
:101A8000302BF9D0002BD6D0012300E00023002713
:101A900004930A22179BCDE905770A9317980678D5
:101AA000A6F13003D9B2092924D95A46294645F06E
:101AB0002FFC00282DD000203246059D834603468A
:101AC000652A01D0452A13D11DB9049A024392D048
:101AD0000025179C621C179262782B2A6ED02D2A43
:101AE00072D04FF0000CA2F1300109297AD9179475
:101AF000002699E00599013008291790D7BF06996B
:101B000002FB073702FB01330693059B0133059364
:101B1000C4E7179B03EB0B02179213F80B20059BEE
:101B2000A3B383461D46A2F13003092B12D901232A
:101B3000C6E7179B01305A1C17925A78302AF8D002
:101B4000A2F13103082B00F2EF8483460020179B9B
:101B500005460A93303A00F1010311D09B4400EB93
:101B6000050C2B460A21634512D12B180135082B91
:101B7000054419DC06990A2303FB0123069300237D
:101B8000179A1846511C17915278CCE70598D5E75B
:101B9000082B03F1010303DC069E4E430696E2E7A1
:101BA000102BD8BF4F43DEE70F2BDCBF0A2303FB0C
:101BB0000727E4E74FF0000B012386E74FF0000C06
:101BC000A21C1792A2788EE74FF0010CF8E700BF35
:101BD0007C7E0500647E05000000F07F179A511C92
:101BE00017915278302AF9D0A2F1310108293FF635
:101BF0007FAF303A0792179A0C92179A561C179695
:101C00005278A2F1300EBEF1090F38D90C99761A2C
:101C1000082E44F61F6603DC07998E42A8BF0E46C5
:101C2000BCF1000F00D07642002D4FD1049908433B
:101C30007FF401AF002B7FF4DEAE692A29D026DCC9
:101C4000492A26D04E2A7FF4D6AE9B4917A845F0E4
:101C5000B3FC00283FF4CFAE179B1B78282B2FD165
:101C60001AAA964917A845F0BBFC052828D11B9B4A
:101C7000DDF8688043F0FF4949F4E009DBE6079EA0
:101C80000A2101FB0621A1F130020792B5E76E2A75
:101C9000D9E78B4917A845F08FFC00283FF4ABAE7D
:101CA000179B17A88749013B179345F085FC10B98E
:101CB000179B01331793DFF81C924FF00008BAE628
:101CC0008148FFF741FE59EC108BB4E6A6EB0B03FD
:101CD00006982C460C93059B002B08BF2B46102D15
:101CE0000593A8BF1024FEF779FB092D804689468D
:101CF00013DC0C9B002B3FF49EAE0C9B78DD162B67
:101D000045DC7249424601EBC3014B46D1E9000173
:101D1000FEF7DEFB804689468DE66C4B03EBC40381
:101D200053E91223FEF7D4FB804689463846FEF776
:101D300055FB02460B4640464946FEF713FA0F2D67
:101D400080468946D5DD2C1B0C9B1C44002C25DCD1
:101D500000F0A280644214F00F020AD05B4B4046B0
:101D6000494603EBC203D3E90023FEF7DBFC8046C0
:101D70008946241100F090801F2C40F3B18022236B
:101D80004FF000084FF00009CAF8003053E6C5F1E3
:101D900025030C9A934219DA2C1B144414F00F03F8
:101DA0000AD04A49424601EBC3014B46D1E9000142
:101DB000FEF78EFB8046894634F00F046CD0B4F5F4
:101DC0009A7F41DD2223CAF8003074E7C5F10F0580
:101DD0003E4C42464B4604EBC501D1E90001FEF7FB
:101DE00077FB0C9B5D1B04EBC504D4E900238FE754
:101DF0001633A8DBABEB0602344B4046494603EBF7
:101E0000C203D3E90023FEF78DFC83E7002306938A
:101E10002223DFF8C0904FF00008CAF8003018996C
:101E2000504639F04FF80699504639F04BF805996D
:101E3000504639F047F81099504639F043F8079961
:101E4000504639F03FF8F6E5002324114046494654
:101E50001F4F0493012C22DC0BB180468946049B62
:101E6000A9F154791A49424601EBC3014B46D1E925
:101E70000001FEF72DFB174B0A4680460B40164922
:101E80008B429FD8A1F580118B4286BFDFF84C9022
:101E90004FF0FF3802F15479002304934BE0E2073E
:101EA00004D5D7E90023FEF713FB0123049A64103D
:101EB000083701320492CDE710C70500507E0500B7
:101EC00008C705003AC70500C8C805001887040000
:101ED000F08604000000F07F0000A07CFFFFEF7F91
:101EE00014F0100340464946AA4F18BF6A230493D2
:101EF0000023E20704D5D7E90023FEF7E9FA01231E
:101F0000641007F10807F4D10BB180468946049BA1
:101F100043B1C9F30A524946C2F16B03002B4EDCB0
:101F20006A2304930022002340464946FEF738FE08
:101F300000287FF424AF069B5046059A00932B4659
:101F40000A9939F029F8109000283FF43BAF0C9B18
:101F5000ABEB060B002BB4BF5B46002311930C9B2D
:101F600023EAE3731393002307930593109B5046D2
:101F7000596838F067FF069000283FF449AF109B7E
:101F80000C301A6903F10C010232920045F069F835
:101F90001AAA19A9504649EC108BCDE90A8939F0E3
:101FA000D7FA189000283FF433AF0121504639F09A
:101FB0003DF803460590D0B90023059328E71F2B71
:101FC0000EDD342B4FF00008DBBF4FF0FF33C2F1C2
:101FD0004B024FF05C799340D8BF03EA01099FE7B9
:101FE0004FF0FF3202FA03F303EA080898E7199C5E
:101FF0001A9A002CA9BF119B139BE718139EB8BF18
:102000001E1B049BB8BF119FE41A634B1444C2F11A
:102010003602013C9C4280F2B0801B1B01251F2B25
:10202000A2EB0302CDBFC4F17F449D40002404F520
:102030007F04C2BF04F57B44E23405FA04F407EBE5
:10204000020B049B16445F451E443B46A8BF5B46FB
:10205000B342A8BF3346002BC2BFABEB030BF61A4B
:10206000FF1A119B002B16DD1A460599504639F0D0
:102070009DF8059000289FD00146189A504638F0E8
:10208000EBFF0E9000283FF4C3AE1899504638F08D
:1020900019FF0E9B1893BBF1000F71DC0C9B002BFA
:1020A00008DD139A5046069939F080F8069000280A
:1020B0003FF4ACAE002E08DD32460699504639F0AA
:1020C000CFF8069000283FF4A1AE002F08DD3A4675
:1020D0000599504639F0C4F8059000283FF498AEB1
:1020E000069A5046189939F027F9079000283FF4CE
:1020F0008FAEC36805990E930023C36045F07AFB49
:1021000000284BDA0E9B53EA080340F0BC80C9F369
:102110001303002B40F0B78029F000431B0D1B0573
:10212000B3F1D66F40F2AF80079B5B6923B9079B81
:102130001B69012B40F3A78001220799504639F013
:102140008FF80599079045F055FB002840F39B80D8
:1021500029F00043049A1B0D1B05002A79D0B3F126
:10216000D66F6DD8B3F15C7F46D84FF000084FF0C2
:1021700000092223CAF8003051E6002401255EE759
:102180005A461899504639F06BF81890002885D1B6
:102190003EE600BFC886040002FCFFFFCB4640F0CD
:1021A000A3800E9AC9F31303002A40D09C4A93429D
:1021B00058D1049B42467BB9B8F1FF3F40F089807B
:1021C000984B99453FF424AE974BDDF8108009EA0F
:1021D000030303F5801922E6934B09EA0303B3F1E5
:1021E000D46F16D918F101011BD18E4A91453FF4E5
:1021F0000FAE03F5801980468C4B404649460022BD
:10220000FEF766F90B468046894603437FF407AE26
:10221000AFE71E0D4FF0FF31C6F16B06B1408845A8
:10222000E7D0002C5ED014EA0B0FE5D01EE0002BA7
:102230004AD1B8F1000F8BD064B314EA0B0F2BE036
:10224000A3F580134FF0FF386FEA13596FEA09596D
:10225000D2E7A3F580134FF0FF386FEA13596FEA06
:102260000959DCE59CB114EA090F0CD040464946F7
:10227000049A45F07EF8DDE90A0153EC102BFDF7D6
:1022800071FF80468946049B002BB5D1C7E515EA4E
:10229000080FEAE718EA050FF5D0049A40464946C8
:1022A00045F067F8DDE90A0153EC102BFDF758FF04
:1022B0000022002304460D46FEF772FC00287FF43E
:1022C00054AFA046A946DEE7002CB6D115EA080FA8
:1022D000E2E724B114EA090F3FF4A1ADC6E718EA1A
:1022E000050FF9E72A42A0E70599079845F09DFAFE
:1022F00000224FF0804355EC104B20462946FEF754
:1023000063FC00286DD00E9B002B78D1B8F1000F34
:1023100056D1C9F31303002B59D10022444B204658
:102320002946FEF747FC002858D1204629460022BE
:10233000404BFEF7CDF804460D4605F100430894E6
:102340000993394B0BEA03031293129A3A4B9A42C0
:10235000DDE9086740F0A980ABF1547949EC108BB6
:1023600039F082F8DDE9082351EC100BFEF7B0F8E4
:1023700042464B46FDF7F6FE0B462B4980462F4A58
:10238000194091425CD90B9A264B9A4203D10A9B81
:1023900001333FF43DADDFF88C904FF0FF381899D2
:1023A000504638F08FFD0699504638F08BFD059960
:1023B000504638F087FD0799504638F083FDD5E543
:1023C000B8F1010F03D1B9F1000F3FF4CEAE0024F4
:1023D000174D9FED0F7B8DED087BB2E70024154D67
:1023E000ABE7144B204629460022FEF771F80E9BFE
:1023F00004460D46002BA0D0CDE90845A1E79FED8E
:10240000067B55EC174B8DED087B9AE7AFF3008008
:10241000000000000000F0BF000000000000F03FDE
:10242000FFFF0F00FFFFEF7F0000F07F000050393B
:102430000000F03F0000E03F0000E07FFFFF9F7CD6
:1024400003F15479049B4E46002BA8D129F0004398
:10245000129A1B0D1B059A42A1D120462946FEF770
:1024600007FCC9F31306FEF705F80B46024629469A
:10247000204646EA0806FDF773FE0E9B04460D460D
:102480001E434BD02EA3D3E90023FEF793FB002875
:102490007FF4C5AC204629462BA3D3E90023FEF7E1
:1024A000A7FB00283FF47BAFB9E4049B13B3129B56
:1024B000B3F1D46F1ED82046294625A3D3E90023C3
:1024C000FEF782FB90B129462046FEF79BFB0128D0
:1024D00038BF0120FDF782FF0E9B04460D46D3B99D
:1024E00001F1004314901593DDE9146707F1D663F9
:1024F000129A9F1A9DED0A0B38F0B6FF3046394606
:1025000053EC102BFDF7E4FFDDE90A23FDF72AFE6B
:102510008046894696E7CDE91445E5E70EA3D3E961
:102520000023FEF747FBBCE7652A3FF443AB452A8F
:102530003FF440AB0123FFF779BB00BFAFF300804E
:102540009535A094FFFFDF3F35E5AF350000E03F54
:102550000000C0FFFFFFDF419535A094FFFFCF3F94
:102560002DE9F04F476A97B08346209E08910C9260
:10257000129355EC104B8DED000B7FB9102037F006
:102580009DFC0246CBF8240020B9A74BEA21A748BE
:1025900039F036F8C0E901770760C760DBF824300E
:1025A000196859B15A680123584693404A608B60B4
:1025B00038F088FCDBF8243000221A602B1EB7BFED
:1025C00023F00043002301220193A8BF3360019F41
:1025D000974BB8BF3260BB4319D142F20F73129AC6
:1025E0001360C7F31303234300F0DB85219B53B92A
:1025F000904B21E0904B03930833219A136003988A
:1026000017B0BDE8F08F8B4B03930333F5E79DEDD7
:10261000007B0022002351EC170B8DED0A7BFEF7A7
:10262000BFFA804650B10123129A1360219B13B167
:10263000824B219A1360824B0393E0E7C7F30A565B
:1026400014AA15A958469DED0A0B38F081FF029097
:10265000002E76D00B9BA6F2FF36CDF84C80C3F34C
:10266000130343F07F53DDE90A0143F44013194695
:102670000022744BFDF774FD65A3D3E90023FDF739
:1026800027FF65A3D3E90023FDF76CFD04460D4643
:102690003046FDF7B3FE62A3D3E90023FDF718FF30
:1026A00002460B4620462946FDF75CFD04460D46D2
:1026B000FEF720F900220746002320462946FEF7B0
:1026C00079FA40B13846FDF799FE22462B46FEF7CF
:1026D00067FA00B9013F162F52D85B4B03EBC703D3
:1026E000DDE90A01D3E90023FEF764FA002849D0A6
:1026F000013F00231193149B9B1B5A1E4CBFC3F137
:1027000001030023079245BF069300230693079316
:10271000002F39DB079B10973B4407930023099355
:10272000089B092B66D8052BC5BF043B0024012458
:102730000893089B023B032B67D8DFE803F02D3A90
:102740003859DDE914631E4406F23243202BC9BF19
:10275000C3F14003C3F120039F4006F21243D8BFE8
:1027600004FA03F006F1FF36C4BF24FA03F347EA84
:102770000300FDF733FE0122A1F1F873139276E70F
:102780000123B7E71190B6E7069BDB1B06937B425C
:10279000099300231093C3E700230D930C9B002B98
:1027A00056DC012399461A4604930C920CE001234F
:1027B000F3E700230D930C9BFB1803F1010904932D
:1027C0004B46012BB8BF0123DBF824000021042273
:1027D00002F114059D423FD94160584638F032FB62
:1027E000039000283BD1194B02464FF4D571CEE639
:1027F0000123DFE7012400230D9408934FF0FF33FA
:102800000022994604931223CFE701230D93F5E7A5
:1028100061436F63A787D23FB3C8608B288AC63FE6
:10282000FB799F501344D33F44C705005BC70500A5
:102830000000F07F40C7050037C7050014C705003A
:1028400013C705000000F83F18870400B5C705004E
:102850000C9B99460493B7E701315200B8E7DBF8C7
:102860002430B9F10E0F039A1A606FD8002C6DD086
:10287000002F36DD07F00F02A04BF8054FEA2714B2
:1028800003EBC20393ED007B8DED0E7B17D59C4BC4
:1028900004F00F044FF00308D3E90823DDE90A012F
:1028A000FDF740FFCDE90001954D5CB9DDE90E2350
:1028B000DDE90001FDF736FFCDE900012BE04FF027
:1028C0000208F1E7E10709D508F10108DDE90E0189
:1028D000D5E90023FDF7FCFDCDE90E0164100835B4
:1028E000E3E700F007817C42844B854D4FF00208FE
:1028F00004F00F02241103EBC203DDE90A01D3E95E
:102900000023FDF7E5FD0023CDE90001002C40F098
:10291000E580002BD0D1119BDDE90045002B00F0B4
:102920004C810022774B20462946FEF743F90028C8
:1029300000F04381B9F1000F00F03F81049B002BB0
:1029400000F3E480DDE90A34CDE90034159B002B67
:1029500002DB0E2F40F342820D9A002A40F067827C
:10296000099C0025DDF81880B8F1000F0DD0079BF9
:10297000002B0ADD4345069AA8BF4346D21AA8EBAE
:1029800003080692079AD31A0793099B0BB30D9B72
:10299000002B00F0A682002C00F0A18229462246DE
:1029A000584638F003FC029A01460546584638F06E
:1029B00053FB02990646584638F084FA099B1B1BC4
:1029C000099300F09182099A3146584638F0EEFB9F
:1029D00002900121584638F029FB109B0446002B39
:1029E00000F084821A460146584638F0DFFB089B07
:1029F0000446012B03DC009B002B00F07C820026A8
:102A0000236904EB8303186944F0A5FEC0F120009C
:102A10001096079B184410F01F0000F09182C0F13F
:102A20002003042B40F38182C0F11C00069B034469
:102A300080440693079B03440793069B002B05DD08
:102A40001A460299584638F00BFC0290079B002B5F
:102A500005DD21461A46584638F002FC0446119B13
:102A6000002B00F076822146029844F0C3FE002835
:102A700080F26F8200230A220299584638F044FA05
:102A80000D9B7E1E0290002B00F05C8200232946E5
:102A90000A22584638F038FA049B0546002B03DC1E
:102AA000089B022B00F35E82B8F1000F05DD29467A
:102AB0004246584638F0D4FB0546109B002B00F0E8
:102AC000D0826968584638F0BDF90746002840F0C2
:102AD0007F820D4B024640F2EA2158E5E20706D517
:102AE00008F10108D5E90023FDF7F2FC0123641089
:102AF00008350BE74FF002080DE700BF1887040008
:102B0000F08604000000F03FB5C705002046002213
:102B1000AC4B2946FDF7DCFC7E1E08F10108049C45
:102B2000CDE900014046FDF769FCDDE90023FDF732
:102B3000CFFCA54B0022FDF715FBA1F15073CDE9A9
:102B40000E010F93002C3BD10022A04BDDE90001C8
:102B5000FDF706FB02460B46CDE90023DDE90E2317
:102B6000FEF746F8002840F05781DDE90E2101F11B
:102B70000043DDE90001FEF71DF800283FF4E2AE56
:102B8000002425460C9BDDF80CA0DE434FF0000826
:102B90002146584638F096F9002D00F0A980B8F18A
:102BA000000F05D0A84503D04146584638F08AF9B1
:102BB0002946584638F086F99AE03E464C46B1E739
:102BC000834B03EBC40353E90201039B1C440D9B9D
:102BD000002B4AD002460B4600207E49FDF7A2FD9D
:102BE000DDE90E23FDF7BCFADDF80CA0CDE90E01FE
:102BF000DDE90001FDF77EFE0546FDF7FFFB02461D
:102C000030350B46DDE90001FDF7AAFA0AF8015B51
:102C100002460B46CDE90001DDE90E01FDF7E8FFB4
:102C2000002865D100206C49DDE90023FDF798FA02
:102C300002460B46DDE90E01FDF7DAFF002840F001
:102C40000D81A24500F0EA8000225E4BDDE90E0115
:102C5000FDF73EFC00225B4BCDE90E01DDE90001F2
:102C6000FDF736FCCDE90001C2E7DDE90E23FDF7F3
:102C70002FFCA046DDF80CA0CDE90E01DDE9000136
:102C8000FDF738FE0546FDF7B9FB024630350B4629
:102C9000DDE90001FDF764FA0AF8015B02460B4624
:102CA000A245CDE900234FF0000223D1494BDDE9D5
:102CB0000E01FDF757FA02460B46DDE90001FDF76C
:102CC00097FF002840F0CA8000204249DDE90E232A
:102CD000FDF746FA02460B46DDE90001FDF76AFF03
:102CE00070B1C24608F1FF381AF8013C302BF8D019
:102CF000374655E0334BFDF7EBFBCDE90001BDE76F
:102D0000DDE90A34CDE90034159B002BFFF628AE2F
:102D10000E2F3FF725AE2E4B03EBC70393ED007B41
:102D20000C9B002B8DED047B02DAB9F1000F64D00F
:102D3000DDF80CA0DDE90045DDE904232046294645
:102D4000FDF7F0FCFDF7D6FD0646FDF757FBDDE984
:102D50000423FDF7BDFB0246204606F130040B4676
:102D60002946FDF7FDF90AF8014B039C02460B4684
:102D7000AAEB0404A14540F08280FDF7F3F9044674
:102D80000D46DDE90423FDF733FF002865D1204619
:102D90002946DDE90423FDF703FF08B1F3075CD4FE
:102DA0000299584638F08EF8002301378AF800302F
:102DB000129B1F60219B002B3FF421ACC3F800A0A5
:102DC0001DE400BF0000244000001C40000014402F
:102DD000188704000000E03F0000F03FA24B03EB27
:102DE000C70393ED007B0C9B002B8DED047B9FDADA
:102DF000B9F1000F9CDC7FF4C3AE00229B4BDDE9F0
:102E00000401FDF765FBDDE90023FDF7E7FE04465D
:102E100000287FF4B5AE3E462546B4E0DDE90A342D
:102E2000CDE90034159B002B01DB0E2FD6DD089A6F
:102E3000012A36DC139A82B303F23343099CDDF88E
:102E40001880069A012158461A440692079A1A4495
:102E5000079238F0EBF8054686E53E4653469A461B
:102E600013F8012D392A06D1039A9A42F7D130225C
:102E7000039901360A701A7801321A7038E7002275
:102E80007B4BFDF725FB0022002304460D46FDF792
:102E900087FE00283FF450AF82E7149BC3F136034E
:102EA000CCE709F1FF34099BA34208DBB9F1000F1D
:102EB000A3EB04040EDBDDF818804B46C1E7099B49
:102EC000109AE31A0994DDF8188000241A444B463E
:102ED0001092B6E7069BA3EB09080023B1E7029E18
:102EE00071E5099A029970E5029672E5089B012B3B
:102EF00017DC009BABB9019BC3F313039BB9019B88
:102F000023F00046360D360536B1069B0126013307
:102F10000693079B01330793109B002B7FF470AD42
:102F20001096012075E50026F6E73FF486AD1C33C8
:102F3000069A1A4498440692079A1A4407927CE526
:102F40000346F4E7049B002B2BDC089B022B09DCD7
:102F500027E0B9F1000F1DDC089B022B1ADD3E466D
:102F6000CDF81090049B002B7FF40CAE2146052277
:102F7000584637F0C9FF01460446029844F03AFC2F
:102F800000287FF7FFADDDF80CA0312301360AF8E9
:102F9000013BFBE50D9B3E46CDF81090002B7FF4E6
:102FA00083AD039F2146029844F001FA039B00F190
:102FB0003009049A07F8019BFB1A9A4240F3CB8030
:102FC00000230A220299584637F09EFF0290E9E753
:102FD0002A6905F10C010C300232920044F041F8EC
:102FE00001223946584638F03BF9039BA84605466E
:102FF00003F1010ADDE9032313440793009B03F067
:10300000010309930AF1FF3321460298049344F027
:10301000CEF94146069000F13009029844F0EAFBEF
:103020002A4621460746584638F086F9C2680146C6
:1030300002B3584637F046FF002F3ADA01220299D0
:10304000584638F00DF92146029044F0D3FB002891
:1030500003DC29D119F0010F26D0B9F1390F1DD1A8
:1030600032E02846C1E700BF188704000000144082
:10307000000024400A90029844F0BCFB0A990C908E
:10308000584637F01FFF0C9A5ABB089B53B9099B4F
:1030900043B9B9F1390F17D0002F05DD069B03F1B5
:1030A000310901E0002F2ADADDF810A00AF8019BAF
:1030B0006EE5089B3B4304D1009B03F00103002B0A
:1030C000BCD0B9F1390F36D1049F392307F8013B41
:1030D000BA46013F1AF8013C392B5AD001333B70F4
:1030E00056E5002F06DB089B3B4306D1009B03F00F
:1030F000010313B9002AA1DCD6E7002AE1DC079B13
:1031000057460AF8019C53452ED000230A22029903
:10311000584637F0F9FEA84502904FF000034FF0F3
:103120000A02414658460BD137F0EEFE804605466E
:103130000AF1010A66E7DDF810A009F10109B5E717
:1031400037F0E2FE2946804600230A22584637F02F
:10315000DBFE0546ECE7049B4FF00008002BCCBFDC
:103160001F460127039B1F4401220299584638F04D
:1031700077F82146029044F03DFB0028A8DC02D1FC
:1031800019F0010FA4D1BA4617F8013D302BFAD03F
:10319000FEE4039BBB429BD13123039A013613709B
:1031A000F6E4219B002B7FF425AA014BFFF744BADC
:1031B00037C7050090B585B000AF4E4B1B6803F0D4
:1031C0000703022B71D96C4600233B7202237B72EA
:1031D0000122BA720322FA723B7304237B738CB010
:1031E000EC461CF110022DD04FF01A0E2AB1BEF1A0
:1031F000040F02DD404BCCF8143000233B72022355
:103200007B722AB1BEF1080F02DD3C4BCCF81830BE
:103210000123BB720323FB722AB1BEF10C0F02DD46
:10322000374BCCF81C3002233B7304237B73B2B1C1
:10323000BEF1100F02DD334BCCF820300CF124032B
:1032400000210AE06FF0004ED0E701F11000384491
:1032500010F8080C03F8010B01310529F5D9BEF16E
:10326000190F37DD1A234AB105213971002179710F
:10327000B9710321F9717868CCF8100000216FF35F
:1032800000016FF341016FF382016FF3C501032069
:1032900060F38811C3F30A0363F353216FF31F51E3
:1032A000002314480BF06AFCA546124B1B6803F080
:1032B0000703022B11D814480BF0DAFA044628B998
:1032C0000C4B1B6803F00703022B0CD82046143765
:1032D000BD4690BD6FF01B03C5E70C4A03210548AE
:1032E0003AF069FDE7E70A4A032102483AF063FD34
:1032F000ECE700BFC81B0020E087040078880400CA
:103300002C880400A0880400C488040034880400C9
:1033100050880400014B1870704700BFC11A00208C
:103320000E4B93F800C0BCF1010F13D900231A46CD
:1033300004E00B4951F823100A4401339C45F8DCA2
:10334000B2FBFCF3944507D8580800F2DC50B0FB00
:10335000F3F0704700207047002070473FAA00201C
:10336000704C00202DE9F84F484B1B887C2B40F215
:103370008280474B1F683846F917464B1E68344613
:10338000F517B046B9464FF0010C01E00CF1010C05
:10339000BCF17C0F18DC3E4B53F82C20101841EB8D
:1033A000E2713C4B53F82C301C1945EBE375BA42E3
:1033B00000DA17464A4500DD9146B34200DA1E4660
:1033C0004345E3DD9846E1E77D220023FDF70AFB54
:1033D000824683467D22002320462946FDF702FBD4
:1033E0000246A9EB0707A8EB0606BAF1000F44D086
:1033F000002845D0284981FB0A314FEAEA73C3EB24
:10340000A113BB423EDCF3174FEAEA7103FB0AF358
:1034100006FB0133AAFB066B5B44590141EAD66106
:103420007501AD1B61EB03018C0044EA9574A900A2
:103430008E1943EB0403D900C317FC1707FB03F3F2
:1034400004FB0030A7FB02230344F00041EA56715D
:10345000FDF7C8FA034600280BDB9B105B4203F222
:103460004C4B03F5C873B3F5967F06D94FF0000BAC
:1034700003E0C31CF1E74FF0000B5846BDE8F88F9E
:103480008346FAE74FF0000BF7E700BF34AA0020AD
:10349000984E0020A44C00201F85EB5170B42C4C9A
:1034A00023882C4A42F823002B4A42F823105A1C46
:1034B0002A4B83FB0213DB10C3EB431103EB8103A5
:1034C000D31A2380264B1B887C2B02D80133244A35
:1034D0001380244B1C68621C1A60012A35D02249D3
:1034E0000B68C51A03EBA5130B601F4B1968401A34
:1034F0001E4B1D681E4B1B689D4220DA83421EDD59
:10350000B3EBE11F1BDD4B2A19D91A490968A1B198
:10351000521A511E093A4B2A0FD8174D2A7802F039
:10352000070C164E46F82C1001322A70144A1278F5
:10353000072A02D8013212490A700E4A14600B4A57
:1035400013600B4B186070BC7047074B1860CCE7DA
:1035500036AA0020984E0020A44C0020D34D6210C3
:1035600034AA0020944C0020A04C0020984C00204D
:103570009C4C0020904C002040AA0020704C002061
:103580003FAA002008B10068704710B5074C40F210
:103590009D2322460649074839F0D6FC064839F0F3
:1035A000D3FC40F29D21204607F0FAFAC8880400B7
:1035B000F88804000C8904002C89040010B5FFF77A
:1035C000E1FF0378012B05D0164A126812F0060FAE
:1035D00021D110BD0446134B1B6803F00703022BD7
:1035E00013D8E168104B1960207A05F081FA034680
:1035F0000028EED00B4A126812F0070FE9D00B4AF0
:10360000012108483AF0E1FBE3E7094A03210548B4
:103610003AF0D1FBE5E7074A022102483AF0D5FB30
:10362000D7E700BFF81B0020045200205089040097
:10363000408904007089040008B50B4B1A780B4BC5
:103640009A700B4A1278DA700A4A12781A710A4A8A
:1036500012785A719A7901329A7100231A4603211D
:1036600006483CF00FFD08BD43AA00201C120020B4
:1036700042AA002041AA0020C01A00200012002007
:1036800008B5024823F0F6FD08BD00BFF011002088
:1036900008B5034B1870034823F0ECFD08BD00BFCC
:1036A000C01A0020F011002008B5034B1870034821
:1036B00023F0E0FD08BD00BF43AA0020F011002068
:1036C00008B5044B1870044B1970044823F0D2FD60
:1036D00008BD00BF42AA002041AA0020F01100202E
:1036E00030B589B04FF4FA6038F014FD354842F037
:1036F000CCFFE0B100238DF81F300F238DF80C3084
:10370000012301930DF11F02009203AA6A212D48A3
:1037100038F0EAFC024618B99DF81F30712B0AD028
:103720009DF81F10284839F0B0F909B030BD27487E
:1037300039F0ABF9F9E712238DF80C3044238DF8FA
:103740000D30204C6A23022203A9204638F0BEFC2B
:1037500010238DF80C3005258DF80D506A230222B8
:1037600003A9204638F0B2FC11238DF80C308DF8F7
:103770000D506A23022203A9204638F0A7FC14202A
:1037800038F0C8FC9DF81F10114839F07EF905E0AB
:10379000104839F07AF9282038F0BCFC22238DF843
:1037A0000C300C23019304AB0093012303AA6A217C
:1037B000044838F099FC01460028E9D1282038F067
:1037C000A9FCEBE7747D0400AC890400988904002F
:1037D000D8890400F889040010B584B0194842F073
:1037E00054FF18B1184839F050F90BE0174839F078
:1037F0004CF904B010BD164839F047F942F2107088
:1038000038F088FC1C238DF80B300223019303ABA6
:10381000009301230DF10B0255210A4838F064FC96
:1038200001460028E7D19DF80C109DF80D3041EAC3
:1038300003210CB2074839F028F9E0B2FFF728FF5E
:10384000DCE700BF747D04002C8A04000C8A0400AD
:10385000448A0400608A040030B587B04FF4FA60EF
:1038600038F058FC334842F010FF08B100250AE058
:10387000314839F00AF907B030BD304839F005F960
:10388000282038F047FC07238DF80B3009230193DB
:1038900003AB009301230DF10B025721254838F0AB
:1038A00023FC01460028E8D19DF80C309DF80D104E
:1038B000090241EA03419DF80E3019439DF80F308B
:1038C0009DF81000000240EA03409DF811301843B3
:1038D000C1F31101C0F31100FFF7E0FD0135184CF1
:1038E000A4FB0534E40804EB840404EB84042C1BDF
:1038F00003D1FFF715FD002808DC1CB9FFF732FDE6
:10390000002807DC282038F005FCBCE7C0B2FFF730
:10391000CBFEF2E70B4A82FB0032C317C3EBA203D4
:1039200003EB8302A0EB4200C1B2D8B2FFF7C8FE9E
:10393000E8E700BF747D0400708A0400888A0400F0
:103940001F85EB516766666610B541F69A12002333
:103950001D491E4816F0D2FA68B104461C4B1B687C
:1039600013F0070F01D1204610BD1A4A0121184853
:103970003AF021FAF7E741F69A1200231649174860
:1039800016F0BCFA044650B1114B1B6813F0070F38
:10399000E9D0134A01210E483AF00DFAE3E741F667
:1039A0009A1200230F49104816F0A8FA044600287E
:1039B000D9D0074B1B6813F0070FD4D00B4A012155
:1039C00003483AF0F8F9CEE78C8304001C83040026
:1039D000F81B00209C8A04009883040044830400A0
:1039E000B88A04008083040008830400D48A040099
:1039F00010B588B000220023CDE9062300230493EC
:103A0000052203920293019300932A4B4FF4006224
:103A100029492A4823F0DAFF294B1860294923F065
:103A20008FFE70B10446284B1B6813F0070F02D1BC
:103A3000204608B010BD254A012123483AF0BBF9C1
:103A4000F6E700220023CDE9062300230493052294
:103A500003920293019300931D4B4FF400621D49A2
:103A60001D4823F0B3FF1D4B18601D4923F068FE6D
:103A7000044650B1144B1B6813F0070FD8D0194AF5
:103A8000012111483AF097F9D2E741F69A12002342
:103A90001549164816F032FA04460028C8D00A4BD9
:103AA0001B6813F0070FC3D0114A012106483AF0F2
:103AB00082F9BDE7F13C000068C400200026002028
:103AC0000C520020F48A0400F81B0020048B040030
:103AD000D13B000068BC0020F824002008520020E0
:103AE000288B04003C8B0400A4830400588304004A
:103AF000648B04002DE9F04182B080460C461546E7
:103B00001E46214A03CAC4F80B00C4F80F10032351
:103B10002B7023681B686B604FF65861206838F083
:103B200056FB074658B1194B1B6813F0070F19D005
:103B30000346174A012115483AF047F912E0013EC1
:103B4000019605F1080300932346124A00214046DE
:103B500004F0A6FE061E09DB013623689B886B7005
:103B6000089B1E60384602B0BDE8F081074B1B6819
:103B700013F0070F01D13746F4E73346064A012117
:103B800002483AF022F9F6E7888B0400F81B00207F
:103B9000948B040056341200C48B040010B504F05A
:103BA0004BFF041E04DB029B1C600024204610BD5A
:103BB000054B1B6813F0070FF8D02346034A012179
:103BC00001483AF002F9F1E7F81B0020F88B0400F5
:103BD00000B58BB00CE0E1220092404A0121404840
:103BE0003AF0FEF816E000F0B1FF3E4B1B7863BBE5
:103BF0004FF0FF324FF0FF33CDE9002303AA09A9AC
:103C0000394816F0CBF868B10346354A126812F00D
:103C1000070FE0D1002383F31188BFF36F8F0323D5
:103C2000184602DF9DF80C30042B2FD0052BDFD077
:103C3000032BD8D02A4A126812F0060FD8D02B4A8C
:103C4000022127483AF0C1F8D2E701F057F80020E6
:103C5000FFF760FB022006F0DFFA03460028C7D01A
:103C60001F4A126812F0070F08D1002383F311884E
:103C7000BFF36F8F0323184602DFB9E7F3220092E8
:103C8000164A012116483AF0ABF8EEE700F066FF5D
:103C9000144B1B78012BABD00120FFF73BFB01F04D
:103CA00049FA022006F080FA03460028A0D00C4A08
:103CB000126812F0070F08D1002383F31188BFF3B5
:103CC0006F8F0323184602DF92E740F2051200923D
:103CD000024A012102483AF083F8EDE72C8C0400F7
:103CE000F81B0020C11A002098830400508C0400A7
:103CF00010B586B07EE090220092674A01216748A5
:103D00003AF06EF886E095220092634A01216348FA
:103D10003AF066F895E0614B1B6813F0060F01D18D
:103D200006B010BD5E4A02215C483AF044F8F7E75D
:103D3000002004F053FF034600285BD0574A126866
:103D400012F0060F56D0574A022154483AF03DF877
:103D500050E0554B1968002004F0CAFE03460028C5
:103D600048D04E4A126812F0060F43D04F4A022143
:103D70004A483AF02AF83DE04D4B1B785BB1474A80
:103D8000126802F00702022A34D94A4A0321434842
:103D90003AF01BF82EE0484A137883F001031370C1
:103DA00063B100F01DFF044624B33C4B1B6813F0C5
:103DB000060F13D1404B00221A701BE0002000F0C8
:103DC000D5FE0446354B1B6803F00703022BEBD9E5
:103DD0003A4A0321314839F0EEFFE5E72346384AF5
:103DE00002212E4839F0F1FFE4E72C4A126812F064
:103DF000060F4BD14FF0FF324FF0FF3305A931488A
:103E000015F04CFF70B10346244A126812F0070FF8
:103E10007FF471AF002383F31188BFF36F8F032307
:103E2000184602DF40F6CD42002303A9059815F09D
:103E3000E9FE034668B1194A126812F0070F7FF4D1
:103E400062AF002383F31188BFF36F8F03231846FB
:103E500002DF9DF81030012B7FF45DAF039B002B38
:103E60008AD0032BC1D1124B1B78002B3FF460AFDB
:103E7000012B3FF46EAF094A126812F0060FB9D059
:103E8000114A0221054839F0A0FFB3E70F4A022189
:103E9000024839F09AFFADE72C8C0400F81B002093
:103EA000788C0400908C0400045200205089040097
:103EB000C11A0020C88C04003EAA0020EC8C04002B
:103EC000FC8C04008C830400B08C0400188D04006A
:103ED00010B586B0039004918DF81420174B1B7811
:103EE0000BB106B010BD059B009303AB0CCB0021BA
:103EF000084604F0D5FE044658B1114B1B688342B6
:103F000007D010F18C0F07D00E4B1B6813F0060F73
:103F10000DD10B4B1C60E4E70A4B1B6813F0060F36
:103F2000F7D0094A0221074839F045FFF1E7034677
:103F3000064A0221034839F048FFEAE7C11A002087
:103F40006C4C0020F81B00203C8D0400588D0400B0
:103F5000F0B587B002AF8A4842F097FB002800F026
:103F6000E480884838F091FD874838F08EFD0823BA
:103F70003B714F257D71824C57230222391D20460B
:103F800038F0A4F80A233B717D7157230222391DB2
:103F9000204638F09BF80C233B7150237B7157234C
:103FA0000222391D204638F091F80D233B7130254F
:103FB0007D7157230222391D204638F087F80E23E1
:103FC0003B717D7157230222391D204638F07EF85F
:103FD00011233B7121237B7157230222391D204677
:103FE00038F074F812233B7103237B7157230222AC
:103FF000391D204638F06AF804233B7100257D7195
:1040000057230222391D204638F060F805233B7102
:104010007D7157230222391D204638F057F80623B8
:104020003B717D7157230222391D204638F04EF82E
:1040300009233B7107237B7157230222391D204638
:1040400038F044F8514838F020FDFD60BD6006F0BE
:10405000EDFE034660B14E4A126812F0070F68D1B8
:10406000002383F31188BFF36F8F0323184602DF09
:10407000FFF7A0F8034660B1454A126812F0070F37
:1040800060D1002383F31188BFF36F8F0323184699
:1040900002DF02F069FC034660B13D4A126812F08B
:1040A000070F58D1002383F31188BFF36F8F0323C9
:1040B000184602DF01F04EF9034660B1344A126837
:1040C00012F0070F50D1002383F31188BFF36F8FD5
:1040D0000323184602DFFFF78BFC0546002800F09B
:1040E0009C802B4B1B6813F0070F00F089806E46F5
:1040F00000233B7102237B7188B002AC14F11002E3
:104100003BD00E201AB1042801DD224B636100234D
:104110003B7002237B70002A4ED0082801DD1E4B25
:10412000A36104F11C03002144E01C4838F0ADFCFD
:1041300095E34FF47D720092194A0121144839F039
:104140004FFE8DE740F2F7320092154A01211048E8
:1041500039F046FE95E740F2FA320092104A01210A
:104160000B4839F03DFE9DE740F2FD3200920C4ACB
:104170000121074839F034FEA5E76FF00040C1E7A0
:10418000747D0400A08D0400B88D0400D88D040057
:10419000F81B0020489C0400F48D0400848D04006A
:1041A0002C8C040001F1100CBC441CF810CC03F85A
:1041B00001CB01310129F5D90D2855DD0E2342B17E
:1041C0000321397100217971B9710121F971786880
:1041D000206100216FF300016FF341016FF3820151
:1041E0006FF3C501012060F38811C3F30A0363F381
:1041F00053216FF31F510023A0480AF0BFFCB546BE
:104200009E4B1B6813F0070F31D1002383F31188F5
:10421000BFF36F8F0323184602DFFFF795FB0546B8
:1042200000286CD0954B1B6813F0070F5AD06E46D0
:1042300000233B7102237B7188B002AC14F11002A1
:104240001FD00E201AB1042801DD8D4B63610023BD
:104250003B7002237B700AB3082801DD894BA36100
:1042600004F11C03002117E06FF01B03A7E74FF4D4
:10427000806300932B46844A0121804839F0B0FDC9
:10428000C3E76FF00040DDE701F1100CBC441CF8FF
:1042900010CC03F801CB01310129F5D90D285BDDE4
:1042A0000E2342B10321397100217971B9710121C5
:1042B000F9717868206100216FF300016FF341010B
:1042C0006FF382016FF3C501012060F38811C3F31E
:1042D0000A0363F353216FF31F51002367480AF069
:1042E0004DFCB546654B1B6813F0070F37D1002313
:1042F00083F31188BFF36F8F0323184602DF634CEB
:10430000204604F04BFD0021204604F06BFD0546DD
:1043100000286CD0594B1B6813F0070F5AD06E461B
:1043200000233B7102237B7188B002AC14F11002B0
:104330001FD00E201AB1042801DD514B6361002308
:104340003B7002237B700AB3082801DD504BA36148
:1043500004F11C03002117E06FF01B03A1E740F2FA
:10436000034300932B46484A0121444839F038FD65
:10437000BDE76FF00040DDE701F1100CBC441CF814
:1043800010CC03F801CB01310129F5D90D2865DDE9
:104390000E2342B10321397100217971B9710121D4
:1043A000F9717868206100216FF300016FF341011A
:1043B0006FF382016FF3C501012060F38811C3F32D
:1043C0000A0363F353216FF31F5100232B480AF0B4
:1043D000D5FBB546294B1B6813F0070F41D10023CD
:1043E00083F31188BFF36F8F0323184602DF032086
:1043F00014F08CFA00224FF4FA4100F03DFC05461F
:1044000000287BD01D4B1B6813F0070F69D06E4648
:1044100000233B7102237B7188B002AC14F11002BF
:1044200029D00E201AB1042801DD154B6361002349
:104430003B7002237B707AB3082801DD154BA36122
:1044400004F11C030021012926D801F1100CBC4401
:104450001CF810CC03F801CB0131F4E76FF01B031B
:1044600097E740F2094300932B46074A012103488E
:1044700039F0B6FCB3E76FF00040D3E7F81B00203B
:10448000489C0400208E04002C8C0400104C00205A
:104490004C8E04006C8E04000D2840F397800E2390
:1044A00042B10321397100217971B9710121F9718A
:1044B0007868206100216FF300016FF341016FF311
:1044C00082016FF3C501012060F38811C3F30A0371
:1044D00063F353216FF31F510023A8480AF04EFBEA
:1044E000B546A64B1B6813F0070F72D1002383F368
:1044F0001188BFF36F8F0323184602DF07F10C0307
:10450000009314239E4A9F490020FFF7F3FA0346C5
:1045100060B19A4A126812F0070F64D1002383F346
:104520001188BFF36F8F0323184602DF07F10803DA
:1045300000930123944A95490020FFF72FFB03467F
:1045400060B18E4A126812F0070F55D1002383F331
:104550001188BFF36F8F0323184602DF00200190FC
:10456000BB680093884BFA68854902F0E5FF054671
:1045700000287ED0814B1B6813F0070F6CD06E466D
:1045800000233B7102237B7188B002AC14F110024E
:104590003BD00E201AB1042801DD7D4B636100235E
:1045A0003B7002237B709AB3082801DD794BA3612D
:1045B00004F11C03002101292AD801F1100CBC448C
:1045C0001CF810CC03F801CB0131F4E76FF01B03AA
:1045D00066E740F20E4300932B466F4A012167487D
:1045E00039F0FEFB82E740F2134200926A4A012151
:1045F000624839F0F5FB91E740F216420092664AB4
:1046000001215E4839F0ECFBA0E76FF00040C1E704
:104610000D2851DD0E2342B103213971002179713A
:10462000B9710121F9717868206100216FF30001EF
:104630006FF341016FF382016FF3C501012060F355
:104640008811C3F30A0363F353216FF31F5100234F
:104650004A480AF093FAB546484B1B6813F0070F17
:104660002DD1002383F31188BFF36F8F03231846E6
:1046700002DF424B1B6803F00703022B5BD96D4638
:1046800000233B7102237B7188B002AC14F110024D
:104690001FD00E201AB1042801DD404B63610023B6
:1046A0003B7002237B7012B3082801DD3C4BA361F1
:1046B00004F11C03002118E06FF01B03ABE740F28C
:1046C0001B4300932B46344A01212C4839F088FBC8
:1046D000C7E76FF00040DDE701F1100606EB070CBD
:1046E0001CF810CC03F801CB01310129F4D90D28B5
:1046F00040DD0E2342B10321397100217971B97176
:104700000121F9717868206100216FF300016FF3D6
:1047100041016FF382016FF3C501032060F388113B
:10472000C3F30A0363F353216FF31F5100231348AC
:104730000AF024FAAD464FF400320023CDE90023FD
:10474000184825F013FA002300930322164917484E
:1047500012F0D6F9034668B310F1780F2AD0074A51
:10476000126812F0060F79D0114A0221034839F07D
:104770002CFB73E06FF01B03BCE700BFF81B0020AD
:10478000C450002034120020B45000202C1200200D
:10479000489C0400908E04002C8C0400B48E04000D
:1047A000888B0400F01C0020001200202C8F0400D5
:1047B000D48E04002D4B1B6803F00703022B4DD948
:1047C0006D4600233B7102237B7188B002AC14F16B
:1047D000100212D00E201AB1042801DD244B6361AF
:1047E00000233B7002237B70A2B1082801DD214B1E
:1047F000A36104F11C0300210AE06FF00040EAE726
:1048000001F110063E4416F8106C03F8016B0131FB
:104810000129F5D90D2825DD0E2342B10321397177
:1048200000217971B9710121F97178682061002145
:104830006FF300016FF341016FF382016FF3C50164
:10484000032060F38811C3F30A0363F353216FF36A
:104850001F51002305480AF091F9AD460020143796
:10486000BD46F0BD6FF01B03D7E700BFF81B00206B
:10487000F08E0400248F0400034B01221A700222E0
:104880005A751A75704700BF445200202DE9F04157
:10489000ADF5806D02AF0026C7F8EC63B0E00023F1
:1048A00083F31188BFF36F8F0323184602DF07F5E8
:1048B0007E7303EB8405994B1A6855F8341C07F591
:1048C000A27303EB841042F0CCFB55F8341C9448DF
:1048D00019F0FEFA0134092C1DDC4FF0FF324FF0C5
:1048E000FF33CDE900238D4A07F5717303EB840193
:1048F0008B4819F0B9FA03460028D8D0894A1268C3
:1049000012F0070FCBD088220092874A01218548F8
:1049100039F066FAC3E7854B1B7B002B61D0844BD3
:104920001B68002B76D107F57B73824A4FF4207108
:1049300007F5A27001F0AEFC0446002851D0794B77
:104940001B6813F0070F3FD06D4600233B71022315
:104950007B7188B002A911F1100200F09D804FF028
:104960000E0C22B1BCF1040F01DD734B4B6100232F
:104970003B7002237B70002A40F09180BCF10D0F48
:1049800040F39E800E2342B10320387100207871DD
:10499000B8710120F871786808616FF300086FF34F
:1049A00041086FF382086FF3C508012161F388188D
:1049B000C3F30A0363F353286FF31F5800234146E0
:1049C00058480AF0DBF8AD46564B1B6813F0070F4A
:1049D00079D1002383F31188BFF36F8F0323184627
:1049E00002DFB6F57A7F77D00136504B1B7B3BB1A7
:1049F0004E4B5A7DD7F8EC134E4B1868FFF768FA08
:104A00004FF0FF324FF0FF3301214C4825F000FCFE
:104A1000002460E74A4A00924A4A4FF4A071381DC8
:104A200019F046F8034660B13E4A126812F0070FCB
:104A300022D1002383F31188BFF36F8F032318461D
:104A400002DF009707F5A27310224FF4A071381D02
:104A50003DF0DFFC034600283FF465AF314A1268A1
:104A600012F0070F10D1002383F31188BFF36F8F6B
:104A70000323184602DF56E7972200922A4A0121B3
:104A8000284839F0ADF9D4E79C220092264A01214A
:104A9000244839F0A5F9E6E76FF0004C61E7BCF176
:104AA000080F01DD284B8B6101F11C03002004E09D
:104AB00017F800E003F801EB01300128F8D95DE7B1
:104AC0006FF01B035FE7A22300932346164A0121E0
:104AD000144839F085F97CE707F57C7207F57D719C
:104AE0000F4819F01DFA064600283FF47EAF0D4B23
:104AF0001B6813F0070F08D1002686F31188BFF357
:104B00006F8F0323184602DF6FE7A9230093034644
:104B1000054A0121034839F063F9EDE718520020F6
:104B2000E8120020381B00202C8C04004452002086
:104B30002052002010520020489C0400D412002073
:104B400014520020245200207C8F040008B500215C
:104B5000014825F0D1FC08BD6452002008B5024888
:104B600042F02DFA08BD00BF6452002010B9184B66
:104B70001860704700B583B0B7EE000A4FF47A535F
:104B800082B21349134818F0C7FF034660B1124AB6
:104B9000126812F0070F0FD1002383F31188BFF3BF
:104BA0006F8F0323184602DF094B1B68202B0BD89D
:104BB000002003B05DF804FBD0220092074A0121D7
:104BC000054839F00DF9E7E76FF00B00F1E700BF9A
:104BD0002052002024520020381B00202C8C04007E
:104BE00010B5204B1B68A3B91E4B4FF47A721A60A4
:104BF0001C4B1B68F3B11C4A126802F00702022A20
:104C000012D8184B1868FFF7B1FF0446F0B92046D8
:104C100010BDB3F57A6F03D3124B00221A60E7E799
:104C20005B00104A1360E3E7104A03210E4839F095
:104C3000CCF8E6E70C4B1B6803F00703022BE0D926
:104C40000B4A0321084839F0B6F8DAE7064B1B682F
:104C500013F0070FDBD0074A0121034839F0ABF806
:104C6000D5E700BF1C520020381B00208C8F0400A9
:104C7000A48F0400B48F040070B505460E46144698
:104C800037F05EFA80B11A4B9D61204637F058FA32
:104C9000D8B1174B01221A719C603EB3144B01220C
:104CA0001A731E61002022E0002DEED0114B1B680C
:104CB00013F0070F02D16FF0150018E02B460E4AD3
:104CC00001210C4839F081F8F5E7002CE5D0094BBB
:104CD0001B6813F0070F02D16FF0150007E02346A1
:104CE000054A0121034839F070F8F5E7002070BD4E
:104CF00044520020381B0020D48F0400F0B58BB044
:104D000008AFFFF7B9FD9B4B93F86430002B44D0FC
:104D1000994B93F86430002B00F0B380974C04F16A
:104D200010030FCB8DE80F0094E80F0001F01EFC7C
:104D30000546002800F06181914B1B6813F0070FB6
:104D400000F04E816E4600233B7102237B7188B0D8
:104D5000344616F1100200F009810E201AB1042821
:104D600001DD884B636100233B7002237B70002AC6
:104D700000F01281082801DD834BA36104F11C03BC
:104D80000021012900F2088101F1080CBC441CF843
:104D900008CC03F801CB0131F3E7764819F042F96A
:104DA00005460028B4D0764B1B6813F0070F4DD092
:104DB0006E4600233B7102237B7188B0344616F1A6
:104DC000100212D00E201AB1042801DD6D4B636170
:104DD00000233B7002237B70A2B1082801DD6B4BDE
:104DE000A36104F11C0300210AE06FF00040EAE730
:104DF00001F1080CBC441CF808CC03F801CB0131CC
:104E00000129F5D90D282FDD0E2342B10321397177
:104E100000217971B9710121F9717868206100214F
:104E20006FF300016FF341016FF382016FF3C5016E
:104E3000012060F38811C3F30A0363F353216FF376
:104E40001F5100234E4809F099FEB5464C4B1B6894
:104E500013F0070F0BD1002383F31188BFF36F8F7B
:104E60000323184602DF53E76FF01B03CDE740F240
:104E70007D1300932B46464A0121414838F0B0FF8C
:104E8000E9E73D4819F0CEF8054600283FF446AF63
:104E90003B4B1B6813F0070F4DD06E4600233B7150
:104EA00002237B7188B0344616F1100212D00E2016
:104EB0001AB1042801DD334B636100233B700223E8
:104EC0007B70A2B1082801DD324BA36104F11C0301
:104ED00000210AE06FF00040EAE701F1080CBC4451
:104EE0001CF808CC03F801CB01310129F5D90D28B4
:104EF0002FDD0E2342B10321397100217971B9717F
:104F00000121F9717868206100216FF300016FF3CE
:104F100041016FF382016FF3C501012060F3881135
:104F2000C3F30A0363F353216FF31F5100231448A3
:104F300009F024FEB546124B1B6813F0070F0BD186
:104F4000002383F31188BFF36F8F0323184602DF1A
:104F5000E4E66FF01B03CDE74FF4C17300932B46DB
:104F60000B4A0121064838F03BFFE9E76FF00040AB
:104F7000F4E600BF50130020E81200204452002045
:104F8000381B0020489C04002C900400F48F04007F
:104F90002C8C0400109004000D285DDD0E2342B11E
:104FA0000321397100217971B9710121F971786892
:104FB000206100216FF300016FF341016FF3820163
:104FC0006FF3C501012060F38811C3F30A0363F393
:104FD00053216FF31F510023474809F0CFFDB54619
:104FE000454B1B6813F0070F39D1002383F3118859
:104FF000BFF36F8F0323184602DF404B01221A775D
:105000001B7B1BB13E4B1B68002B32D005F000FD13
:10501000034660B1384A126812F0070F5AD10023D4
:1050200083F31188BFF36F8F0323184602DF3548DF
:1050300001F086F8034660B12F4A126812F0070F9C
:1050400051D1002383F31188BFF36F8F03231846D8
:1050500002DF0C37BD46F0BD6FF01B039FE74FF436
:10506000C37300932B46284A0121234838F0B8FE29
:10507000BBE700220023CDE906230023049303228B
:105080000392029301930093204B42F6F8222049A9
:10509000204822F09BFC1A4B18601F4922F050FB5D
:1050A00003460028B2D0144A126812F0070F08D144
:1050B000002383F31188BFF36F8F0323184602DFA9
:1050C000A4E74FF4C87200920F4A01210A4838F051
:1050D00087FEEDE74FF4CC7200920B4A012106489F
:1050E00038F07EFE9BE740F29B120092064A0121B7
:1050F000014838F075FEA4E7381B00204452002018
:1051000074520020E81200202C8C04008D4800000E
:1051100068CC0020082700204490040010B5044605
:10512000FFF7ECFD0249204638F0C0FF002010BD1B
:105130004C900400F0B587B004AF644B1B7F5BB9A3
:10514000634B1B6813F0060F00F0B080614A022128
:105150005F4838F030FEA9E005F090FC034660B1EE
:105160005B4A126812F0070F51D1002383F31188B4
:10517000BFF36F8F0323184602DF01F023F80346C5
:1051800060B1534A126812F0070F49D1002383F32C
:105190001188BFF36F8F0323184602DF4B4C04F1D5
:1051A00010030FCB8DE80F0094E80F0001F06AF9AF
:1051B0000546002871D0464B1B6813F0070F5FD0DF
:1051C0006E4600233B7102237B7188B004AC14F15E
:1051D00010022ED00E201AB1042801DD3E4B63616F
:1051E00000233B7002237B7032B3082801DD3B4B68
:1051F000A36104F11C03002101291DD801F1080C51
:10520000BC441CF808CC03F801CB0131F4E74FF49F
:10521000D7720092324A01212D4838F0E1FDA4E70F
:1052200040F2B11200922E4A0121294838F0D8FDEF
:10523000ACE76FF00040CEE70D283ADD0E2342B117
:105240000321397100217971B9710121F9717868EF
:10525000206100216FF300016FF341016FF38201C0
:105260006FF3C501012060F38811C3F30A0363F3F0
:1052700053216FF31F510023154809F07FFCB546F9
:10528000134B1B6813F0070F16D1002383F311880B
:10529000BFF36F8F0323184602DF0C4B00221A77EF
:1052A000104818F075FE104818F072FE0C37BD4615
:1052B000F0BD6FF01B03C2E740F2B51300932B461D
:1052C000074A0121024838F08BFDDEE744520020F6
:1052D000381B002064900400489C04008090040067
:1052E0002C8C0400E81200205013002010B5044656
:1052F000FFF720FF0249204638F0D8FE002010BDFD
:105300009890040010B584B000220023CDE900235A
:1053100002AA03A90C4818F0A7FD38B9044603995E
:10532000094818F0D5FD204604B010BD074B1B6896
:1053300013F0060F02D16FF08B04F4E7044A022148
:10534000024838F038FDF6E7E8120020381B00204C
:10535000B090040010B500F04FFF70B10446114B3F
:105360001B6813F0070F01D1204610BD03460E4AFB
:1053700001210C4838F029FDF6E705F08FFB0446C3
:1053800058B1084B1B6813F0070FEDD00346074ACE
:105390000121044838F019FDE6E7054841F00AFE0E
:1053A000E2E700BF381B0020D0900400F890040012
:1053B00064520020074B984203D0074B984204D018
:1053C0007047002283F880207047403B002283F81A
:1053D0008120F5E7C45D0020045E0020034B00221D
:1053E00083F8802083F88120704700BFC45D0020CF
:1053F00008B50021034B19704FF4A072024841F028
:1054000057FE08BD44AA00204C5E002008B50248A3
:1054100021F030FF08BD00BFC013002008B10068B4
:10542000704710B5074C40F29D23224606490748B5
:1054300037F08AFD064837F087FD40F29D2120466F
:1054400005F0AEFBC8880400F88804000C8904004D
:105450002C89040008B5401A63EB0303144A9042F8
:1054600073F1FF3202DA013843F1000311490A688F
:1054700001320A60B0F5FA7043F1FF3341F289322C
:10548000904273F1000300D208BDFFF73BFF18B94B
:10549000084B00221A60F7E7074B1B6813F0060F52
:1054A000F2D0064A0221044838F085FCECE700BF40
:1054B00001000080C05D0020301B0020D891040056
:1054C00008B5FFF7ABFF02684168007A0B4B5B78C9
:1054D00043B10B4BC3F8F42F48B142B11046FFF76C
:1054E000B9FF04E0074B1B6813F0060F00D108BD9D
:1054F000054A0221034838F05EFCF8E78C5F002083
:105500008C6F0020301B0020F891040090B583B010
:1055100000AF384B1B78834228D0364B1870364B7F
:105520001B6803F00703022B5DD9344B53F820109E
:105530006C4600233B7102237B7188B0EC461CF162
:1055400010021ED00E2022B1042802DD2C4BCCF814
:10555000143000233B7002237B70FAB1082801DD70
:10556000CCF818100CF11C03002115E0224B1B682D
:1055700013F0060F37D0234A02211F4838F01BFCD6
:1055800031E06FF00040DEE701F1080EBE441EF886
:1055900008EC03F801EB01310129F5D90D2825DDCF
:1055A0000E234AB10321397100217971B9710121AA
:1055B000F9717868CCF8100000216FF300016FF3E7
:1055C00041016FF382016FF3C501032060F388117D
:1055D000C3F30A0363F353216FF31F5100230648FB
:1055E00009F0CCFAA5460C37BD4690BD6FF01B0301
:1055F000D7E700BF8C7F0020301B002038980400C4
:10560000649204002C92040038B5504B1B78032B95
:1056100007D8DFE803F0020D416D4D4BD3F8F43F9E
:1056200003B938BD494A53600120FFF76FFFF8E71F
:10563000464A538801339BB25380632BF1D9A2F5BC
:10564000005202F5005100234B804B6802F5805256
:10565000D2F8F42F9B1A03F5C333A0333D4A02FB63
:1056600003F33D4A82FB0302DB17C3EBA21303F5EE
:105670001B40A630886003F6CE3341F29C72934201
:1056800006D880B236F08EFD0220FFF73FFFC8E754
:105690000020FFF73BFFC4E72C4A538801339BB23D
:1056A0005380632BBDD9A2F5005303F500550022AA
:1056B0006A8003F580530146D3F8F40F36F053FDAA
:1056C00000EBD0704410234B04FB03F3224A82FB0F
:1056D0000312DB17C3EBA213A868184480B236F09C
:1056E00061FD0F341E2C9CD80320FFF70FFF98E7B5
:1056F000164A538801339BB25380632B91D9A2F58C
:10570000005303F5005500226A8003F580530146DB
:10571000D3F8F40F36F027FD00EBD07044100D4B9A
:1057200004FB03F30C4A82FB0312DB17C3EBA21347
:10573000A868184480B236F035FD2034402C7FF63E
:1057400070AF0020FFF7E2FE6BE700BF8C7F002008
:105750008C6F002018FCFFFF019D7F31464B1B7CA6
:10576000834200F08780B0B584B002AF0446424B5C
:105770001874424B1B6803F00703022B53D9404BAC
:1057800053F820106D4600233B7102237B7188B0D3
:105790000DF1080C1CF1100213D00E2022B10428C8
:1057A00002DD384BCCF8143000233B7002237B70B1
:1057B000A2B1082801DDCCF818100CF11C0300215F
:1057C0000AE06FF00040E9E701F1080EBE441EF860
:1057D00008EC03F801EB01310129F5D90D2838DD7A
:1057E0000E234AB10321397100217971B971012168
:1057F000F9717868CCF8100000216FF300016FF3A5
:1058000041016FF382016FF3C501032060F388113A
:10581000C3F30A0363F353216FF31F5100231748A7
:1058200009F0ACF9AD46032C16D0032036F00BFE80
:1058300060B1124B1B6813F0070F11D1002383F3E3
:105840001188BFF36F8F0323184602DF0837BD4668
:10585000B0BD6FF01B03C4E7032004F0A5FCE7E72D
:1058600040F25B1300930346074A0121034838F0D6
:10587000B7FAE3E7704700BF8C7F0020301B0020A1
:1058800028980400789204002C8C0400F0B589B0AC
:1058900002AF00237B613B613A1D3946964B986805
:1058A00018F03EFB3B681BB97B680BB9002863D03E
:1058B000924B1B6813F0070F51D06C4600233B73CB
:1058C00002237B7388B00DF1080C1CF1100214D078
:1058D0000E2022B1042802DD894BCCF814300023BD
:1058E0003B7202237B72AAB1082802DD854BCCF8FB
:1058F00018300CF11C0300210AE06FF00040E8E7CB
:1059000001F118053D4415F8105C03F8015B013105
:105910000129F5D90D2866DD0E234AB1032139731B
:1059200000217973B9730121F973F868CCF810007C
:1059300000216FF300016FF341016FF382016FF3F8
:10594000C501012060F38811C3F30A0363F35321F7
:105950006FF31F510023694809F010F9A546674B02
:105960001B6813F0070F41D1002383F31188BFF3A5
:105970006F8F0323184602DF0022002307F1140172
:105980005D48806818F0DAF9054600286DD05B4B59
:105990001B6813F0070F5BD06E4600233B73022396
:1059A0007B7388B002AC14F110022AD00E201AB119
:1059B000042801DD524B636100233B7202237B729A
:1059C00012B3082801DD504BA36104F11C03002130
:1059D000012919D801F1180CBC441CF810CC03F8AB
:1059E00001CB0131F4E76FF01B0396E74FF43D73F1
:1059F00000936FF00B03454A0121404838F0F0F95D
:105A0000B2E76FF00040D2E70D2865DD0E2342B10A
:105A10000321397300217973B9730121F973F8688F
:105A2000206100216FF300016FF341016FF38201E8
:105A30006FF3C501012060F38811C3F30A0363F318
:105A400053216FF31F5100232C4809F097F8B546F6
:105A50002A4B1B6813F0070F41D1002383F31188F1
:105A6000BFF36F8F0323184602DF0022002307F1E4
:105A700010012148806818F061F90546002878D0A7
:105A80001E4B1B6813F0070F66D06E4600233B7356
:105A900002237B7388B002AC14F1100229D00E20CF
:105AA0001AB1042801DD164B636100233B72022307
:105AB0007B726AB3082801DD134BA36104F11C0358
:105AC0000021012924D801F1180CBC441CF810CC89
:105AD00003F801CB0131F4E76FF01B0397E740F2C5
